{
  "contractName": "BondingCurve",
  "abi": [
    {
      "constant": false,
      "inputs": [
        {
          "name": "spender",
          "type": "address"
        },
        {
          "name": "value",
          "type": "uint256"
        }
      ],
      "name": "approve",
      "outputs": [
        {
          "name": "",
          "type": "bool"
        }
      ],
      "payable": false,
      "stateMutability": "nonpayable",
      "type": "function"
    },
    {
      "constant": true,
      "inputs": [],
      "name": "reserveRatio",
      "outputs": [
        {
          "name": "",
          "type": "uint32"
        }
      ],
      "payable": false,
      "stateMutability": "view",
      "type": "function"
    },
    {
      "constant": true,
      "inputs": [],
      "name": "totalSupply",
      "outputs": [
        {
          "name": "",
          "type": "uint256"
        }
      ],
      "payable": false,
      "stateMutability": "view",
      "type": "function"
    },
    {
      "constant": false,
      "inputs": [
        {
          "name": "from",
          "type": "address"
        },
        {
          "name": "to",
          "type": "address"
        },
        {
          "name": "value",
          "type": "uint256"
        }
      ],
      "name": "transferFrom",
      "outputs": [
        {
          "name": "",
          "type": "bool"
        }
      ],
      "payable": false,
      "stateMutability": "nonpayable",
      "type": "function"
    },
    {
      "constant": true,
      "inputs": [
        {
          "name": "_supply",
          "type": "uint256"
        },
        {
          "name": "_connectorBalance",
          "type": "uint256"
        },
        {
          "name": "_connectorWeight",
          "type": "uint32"
        },
        {
          "name": "_depositAmount",
          "type": "uint256"
        }
      ],
      "name": "calculatePurchaseReturn",
      "outputs": [
        {
          "name": "",
          "type": "uint256"
        }
      ],
      "payable": false,
      "stateMutability": "view",
      "type": "function"
    },
    {
      "constant": false,
      "inputs": [
        {
          "name": "spender",
          "type": "address"
        },
        {
          "name": "addedValue",
          "type": "uint256"
        }
      ],
      "name": "increaseAllowance",
      "outputs": [
        {
          "name": "",
          "type": "bool"
        }
      ],
      "payable": false,
      "stateMutability": "nonpayable",
      "type": "function"
    },
    {
      "constant": true,
      "inputs": [
        {
          "name": "_supply",
          "type": "uint256"
        },
        {
          "name": "_connectorBalance",
          "type": "uint256"
        },
        {
          "name": "_connectorWeight",
          "type": "uint32"
        },
        {
          "name": "_sellAmount",
          "type": "uint256"
        }
      ],
      "name": "calculateSaleReturn",
      "outputs": [
        {
          "name": "",
          "type": "uint256"
        }
      ],
      "payable": false,
      "stateMutability": "view",
      "type": "function"
    },
    {
      "constant": true,
      "inputs": [],
      "name": "version",
      "outputs": [
        {
          "name": "",
          "type": "string"
        }
      ],
      "payable": false,
      "stateMutability": "view",
      "type": "function"
    },
    {
      "constant": true,
      "inputs": [
        {
          "name": "owner",
          "type": "address"
        }
      ],
      "name": "balanceOf",
      "outputs": [
        {
          "name": "",
          "type": "uint256"
        }
      ],
      "payable": false,
      "stateMutability": "view",
      "type": "function"
    },
    {
      "constant": true,
      "inputs": [],
      "name": "poolBalance",
      "outputs": [
        {
          "name": "",
          "type": "uint256"
        }
      ],
      "payable": false,
      "stateMutability": "view",
      "type": "function"
    },
    {
      "constant": false,
      "inputs": [
        {
          "name": "spender",
          "type": "address"
        },
        {
          "name": "subtractedValue",
          "type": "uint256"
        }
      ],
      "name": "decreaseAllowance",
      "outputs": [
        {
          "name": "",
          "type": "bool"
        }
      ],
      "payable": false,
      "stateMutability": "nonpayable",
      "type": "function"
    },
    {
      "constant": false,
      "inputs": [
        {
          "name": "to",
          "type": "address"
        },
        {
          "name": "value",
          "type": "uint256"
        }
      ],
      "name": "transfer",
      "outputs": [
        {
          "name": "",
          "type": "bool"
        }
      ],
      "payable": false,
      "stateMutability": "nonpayable",
      "type": "function"
    },
    {
      "constant": true,
      "inputs": [
        {
          "name": "owner",
          "type": "address"
        },
        {
          "name": "spender",
          "type": "address"
        }
      ],
      "name": "allowance",
      "outputs": [
        {
          "name": "",
          "type": "uint256"
        }
      ],
      "payable": false,
      "stateMutability": "view",
      "type": "function"
    },
    {
      "constant": true,
      "inputs": [],
      "name": "gasPrice",
      "outputs": [
        {
          "name": "",
          "type": "uint256"
        }
      ],
      "payable": false,
      "stateMutability": "view",
      "type": "function"
    },
    {
      "anonymous": false,
      "inputs": [
        {
          "indexed": false,
          "name": "sender",
          "type": "address"
        },
        {
          "indexed": false,
          "name": "amount",
          "type": "uint256"
        },
        {
          "indexed": false,
          "name": "deposit",
          "type": "uint256"
        }
      ],
      "name": "CurvedMint",
      "type": "event"
    },
    {
      "anonymous": false,
      "inputs": [
        {
          "indexed": false,
          "name": "sender",
          "type": "address"
        },
        {
          "indexed": false,
          "name": "amount",
          "type": "uint256"
        },
        {
          "indexed": false,
          "name": "reimbursement",
          "type": "uint256"
        }
      ],
      "name": "CurvedBurn",
      "type": "event"
    },
    {
      "anonymous": false,
      "inputs": [
        {
          "indexed": true,
          "name": "from",
          "type": "address"
        },
        {
          "indexed": true,
          "name": "to",
          "type": "address"
        },
        {
          "indexed": false,
          "name": "value",
          "type": "uint256"
        }
      ],
      "name": "Transfer",
      "type": "event"
    },
    {
      "anonymous": false,
      "inputs": [
        {
          "indexed": true,
          "name": "owner",
          "type": "address"
        },
        {
          "indexed": true,
          "name": "spender",
          "type": "address"
        },
        {
          "indexed": false,
          "name": "value",
          "type": "uint256"
        }
      ],
      "name": "Approval",
      "type": "event"
    },
    {
      "constant": true,
      "inputs": [
        {
          "name": "amount",
          "type": "uint256"
        }
      ],
      "name": "calculateCurvedMintReturn",
      "outputs": [
        {
          "name": "",
          "type": "uint256"
        }
      ],
      "payable": false,
      "stateMutability": "view",
      "type": "function"
    },
    {
      "constant": true,
      "inputs": [
        {
          "name": "amount",
          "type": "uint256"
        }
      ],
      "name": "calculateCurvedBurnReturn",
      "outputs": [
        {
          "name": "",
          "type": "uint256"
        }
      ],
      "payable": false,
      "stateMutability": "view",
      "type": "function"
    }
  ],
  "bytecode": "0x60806040526040805190810160405280600381526020017f302e330000000000000000000000000000000000000000000000000000000000815250606890805190602001906200005192919062000f9a565b506040805190810160405280600381526020017f302e33000000000000000000000000000000000000000000000000000000000081525060e990805190602001906200009f92919062000f9a565b50600060ec55701c35fedd14ffffffffffffffffffffffff60696020608081101515620000c857fe5b0181905550701b0ce43b323fffffffffffffffffffffff60696021608081101515620000f057fe5b01819055507019f0028ec1ffffffffffffffffffffffff606960226080811015156200011857fe5b01819055507018ded91f0e7fffffffffffffffffffffff606960236080811015156200014057fe5b01819055507017d8ec7f0417ffffffffffffffffffffff606960246080811015156200016857fe5b01819055507016ddc6556cdbffffffffffffffffffffff606960256080811015156200019057fe5b01819055507015ecf52776a1ffffffffffffffffffffff60696026608081101515620001b857fe5b01819055507015060c256cb2ffffffffffffffffffffff60696027608081101515620001e057fe5b0181905550701428a2f98d72ffffffffffffffffffffff606960286080811015156200020857fe5b01819055507013545598e5c23fffffffffffffffffffff606960296080811015156200023057fe5b0181905550701288c4161ce1dfffffffffffffffffffff6069602a6080811015156200025857fe5b01819055507011c592761c666fffffffffffffffffffff6069602b6080811015156200028057fe5b018190555070110a688680a757ffffffffffffffffffff6069602c608081101515620002a857fe5b0181905550701056f1b5bedf77ffffffffffffffffffff6069602d608081101515620002d057fe5b0181905550700faadceceeff8bffffffffffffffffffff6069602e608081101515620002f857fe5b0181905550700f05dc6b27edadffffffffffffffffffff6069602f6080811015156200032057fe5b0181905550700e67a5a25da4107fffffffffffffffffff606960306080811015156200034857fe5b0181905550700dcff115b14eedffffffffffffffffffff606960316080811015156200037057fe5b0181905550700d3e7a392431239fffffffffffffffffff606960326080811015156200039857fe5b0181905550700cb2ff529eb71e4fffffffffffffffffff60696033608081101515620003c057fe5b0181905550700c2d415c3db974afffffffffffffffffff60696034608081101515620003e857fe5b0181905550700bad03e7d883f69bffffffffffffffffff606960356080811015156200041057fe5b0181905550700b320d03b2c343d5ffffffffffffffffff606960366080811015156200043857fe5b0181905550700abc25204e02828dffffffffffffffffff606960376080811015156200046057fe5b0181905550700a4b16f74ee4bb207fffffffffffffffff606960386080811015156200048857fe5b01819055507009deaf736ac1f569ffffffffffffffffff60696039608081101515620004b057fe5b0181905550700976bd9952c7aa957fffffffffffffffff6069603a608081101515620004d857fe5b01819055507009131271922eaa606fffffffffffffffff6069603b6080811015156200050057fe5b01819055507008b380f3558668c46fffffffffffffffff6069603c6080811015156200052857fe5b0181905550700857ddf0117efa215bffffffffffffffff6069603d6080811015156200055057fe5b01819055507007ffffffffffffffffffffffffffffffff6069603e6080811015156200057857fe5b01819055507007abbf6f6abb9d087fffffffffffffffff6069603f608081101515620005a057fe5b018190555070075af62cbac95f7dfa7fffffffffffffff60696040608081101515620005c857fe5b018190555070070d7fb7452e187ac13fffffffffffffff60696041608081101515620005f057fe5b01819055507006c3390ecc8af379295fffffffffffffff606960426080811015156200061857fe5b018190555070067c00a3b07ffc01fd6fffffffffffffff606960436080811015156200064057fe5b0181905550700637b647c39cbb9d3d27ffffffffffffff606960446080811015156200066857fe5b01819055507005f63b1fc104dbd39587ffffffffffffff606960456080811015156200069057fe5b01819055507005b771955b36e12f7235ffffffffffffff60696046608081101515620006b857fe5b018190555070057b3d49dda84556d6f6ffffffffffffff60696047608081101515620006e057fe5b018190555070054183095b2c8ececf30ffffffffffffff606960486080811015156200070857fe5b018190555070050a28be635ca2b888f77fffffffffffff606960496080811015156200073057fe5b01819055507004d5156639708c9db33c3fffffffffffff6069604a6080811015156200075857fe5b01819055507004a23105873875bd52dfdfffffffffffff6069604b6080811015156200078057fe5b0181905550700471649d87199aa990756fffffffffffff6069604c608081101515620007a857fe5b01819055507004429a21a029d4c1457cfbffffffffffff6069604d608081101515620007d057fe5b0181905550700415bc6d6fb7dd71af2cb3ffffffffffff6069604e608081101515620007f857fe5b01819055507003eab73b3bbfe282243ce1ffffffffffff6069604f6080811015156200082057fe5b01819055507003c1771ac9fb6b4c18e229ffffffffffff606960506080811015156200084857fe5b0181905550700399e96897690418f785257fffffffffff606960516080811015156200087057fe5b0181905550700373fc456c53bb779bf0ea9fffffffffff606960526080811015156200089857fe5b018190555070034f9e8e490c48e67e6ab8bfffffffffff60696053608081101515620008c057fe5b018190555070032cbfd4a7adc790560b3337ffffffffff60696054608081101515620008e857fe5b018190555070030b50570f6e5d2acca94613ffffffffff606960556080811015156200091057fe5b01819055507002eb40f9f620fda6b56c2861ffffffffff606960566080811015156200093857fe5b01819055507002cc8340ecb0d0f520a6af58ffffffffff606960576080811015156200096057fe5b01819055507002af09481380a0a35cf1ba02ffffffffff606960586080811015156200098857fe5b0181905550700292c5bdd3b92ec810287b1b3fffffffff60696059608081101515620009b057fe5b0181905550700277abdcdab07d5a77ac6d6b9fffffffff6069605a608081101515620009d857fe5b018190555070025daf6654b1eaa55fd64df5efffffffff6069605b60808110151562000a0057fe5b0181905550700244c49c648baa98192dce88b7ffffffff6069605c60808110151562000a2857fe5b018190555070022ce03cd5619a311b2471268bffffffff6069605d60808110151562000a5057fe5b0181905550700215f77c045fbe885654a44a0fffffffff6069605e60808110151562000a7857fe5b01819055507001ffffffffffffffffffffffffffffffff6069605f60808110151562000aa057fe5b01819055507001eaefdbdaaee7421fc4d3ede5ffffffff6069606060808110151562000ac857fe5b01819055507001d6bd8b2eb257df7e8ca57b09bfffffff6069606160808110151562000af057fe5b01819055507001c35fedd14b861eb0443f7f133fffffff6069606260808110151562000b1857fe5b01819055507001b0ce43b322bcde4a56e8ada5afffffff6069606360808110151562000b4057fe5b018190555070019f0028ec1fff007f5a195a39dfffffff6069606460808110151562000b6857fe5b018190555070018ded91f0e72ee74f49b15ba527ffffff6069606560808110151562000b9057fe5b018190555070017d8ec7f04136f4e5615fd41a63ffffff6069606660808110151562000bb857fe5b018190555070016ddc6556cdb84bdc8d12d22e6fffffff6069606760808110151562000be057fe5b018190555070015ecf52776a1155b5bd8395814f7fffff6069606860808110151562000c0857fe5b018190555070015060c256cb23b3b3cc3754cf40ffffff60698060808110151562000c2f57fe5b01819055507001428a2f98d728ae223ddab715be3fffff6069606a60808110151562000c5757fe5b018190555070013545598e5c23276ccf0ede68034fffff6069606b60808110151562000c7f57fe5b01819055507001288c4161ce1d6f54b7f61081194fffff6069606c60808110151562000ca757fe5b018190555070011c592761c666aa641d5a01a40f17ffff6069606d60808110151562000ccf57fe5b0181905550700110a688680a7530515f3e6e6cfdcdffff6069606e60808110151562000cf757fe5b01819055507001056f1b5bedf75c6bcb2ce8aed428ffff6069606f60808110151562000d1f57fe5b01819055506ffaadceceeff8a0890f3875f008277fff6069607060808110151562000d4657fe5b01819055506ff05dc6b27edad306388a600f6ba0bfff6069607160808110151562000d6d57fe5b01819055506fe67a5a25da41063de1495d5b18cdbfff6069607260808110151562000d9457fe5b01819055506fdcff115b14eedde6fc3aa5353f2e4fff6069607360808110151562000dbb57fe5b01819055506fd3e7a3924312399f9aae2e0f868f8fff6069607460808110151562000de257fe5b01819055506fcb2ff529eb71e41582cccd5a1ee26fff6069607560808110151562000e0957fe5b01819055506fc2d415c3db974ab32a51840c0b67edff6069607660808110151562000e3057fe5b01819055506fbad03e7d883f69ad5b0a186184e06bff6069607760808110151562000e5757fe5b01819055506fb320d03b2c343d4829abd6075f0cc5ff6069607860808110151562000e7e57fe5b01819055506fabc25204e02828d73c6e80bcdb1a95bf6069607960808110151562000ea557fe5b01819055506fa4b16f74ee4bb2040a1ec6c15fbbf2df6069607a60808110151562000ecc57fe5b01819055506f9deaf736ac1f569deb1b5ae3f36c130f6069607b60808110151562000ef357fe5b01819055506f976bd9952c7aa957f5937d790ef650376069607c60808110151562000f1a57fe5b01819055506f9131271922eaa6064b73a22d0bd4f2bf6069607d60808110151562000f4157fe5b01819055506f8b380f3558668c46c91c49a2f8e967b96069607e60808110151562000f6857fe5b01819055506f857ddf0117efa215952912839f6473e66069607f60808110151562000f8f57fe5b018190555062001049565b828054600181600116156101000203166002900490600052602060002090601f016020900481019282601f1062000fdd57805160ff19168380011785556200100e565b828001600101855582156200100e579182015b828111156200100d57825182559160200191906001019062000ff0565b5b5090506200101d919062001021565b5090565b6200104691905b808211156200104257600081600090555060010162001028565b5090565b90565b61289d80620010596000396000f3006080604052600436106100e6576000357c0100000000000000000000000000000000000000000000000000000000900463ffffffff168063095ea7b3146100eb5780630c7d5cd81461015057806318160ddd1461018757806323b872dd146101b257806329a00e7c14610237578063395093511461029c57806349f9b0f71461030157806354fd4d50146103665780636d6f1e01146103f657806370a082311461043757806396365d441461048e5780639a4f318b146104b9578063a457c2d7146104fa578063a9059cbb1461055f578063dd62ed3e146105c4578063fe173b971461063b575b600080fd5b3480156100f757600080fd5b50610136600480360381019080803573ffffffffffffffffffffffffffffffffffffffff16906020019092919080359060200190929190505050610666565b604051808215151515815260200191505060405180910390f35b34801561015c57600080fd5b50610165610793565b604051808263ffffffff1663ffffffff16815260200191505060405180910390f35b34801561019357600080fd5b5061019c6107a9565b6040518082815260200191505060405180910390f35b3480156101be57600080fd5b5061021d600480360381019080803573ffffffffffffffffffffffffffffffffffffffff169060200190929190803573ffffffffffffffffffffffffffffffffffffffff169060200190929190803590602001909291905050506107b3565b604051808215151515815260200191505060405180910390f35b34801561024357600080fd5b506102866004803603810190808035906020019092919080359060200190929190803563ffffffff16906020019092919080359060200190929190505050610965565b6040518082815260200191505060405180910390f35b3480156102a857600080fd5b506102e7600480360381019080803573ffffffffffffffffffffffffffffffffffffffff16906020019092919080359060200190929190505050610a66565b604051808215151515815260200191505060405180910390f35b34801561030d57600080fd5b506103506004803603810190808035906020019092919080359060200190929190803563ffffffff16906020019092919080359060200190929190505050610c9d565b6040518082815260200191505060405180910390f35b34801561037257600080fd5b5061037b610dd1565b6040518080602001828103825283818151815260200191508051906020019080838360005b838110156103bb5780820151818401526020810190506103a0565b50505050905090810190601f1680156103e85780820380516001836020036101000a031916815260200191505b509250505060405180910390f35b34801561040257600080fd5b5061042160048036038101908080359060200190929190505050610e6f565b6040518082815260200191505060405180910390f35b34801561044357600080fd5b50610478600480360381019080803573ffffffffffffffffffffffffffffffffffffffff169060200190929190505050610e9f565b6040518082815260200191505060405180910390f35b34801561049a57600080fd5b506104a3610ee8565b6040518082815260200191505060405180910390f35b3480156104c557600080fd5b506104e460048036038101908080359060200190929190505050610eee565b6040518082815260200191505060405180910390f35b34801561050657600080fd5b50610545600480360381019080803573ffffffffffffffffffffffffffffffffffffffff16906020019092919080359060200190929190505050610f1e565b604051808215151515815260200191505060405180910390f35b34801561056b57600080fd5b506105aa600480360381019080803573ffffffffffffffffffffffffffffffffffffffff16906020019092919080359060200190929190505050611155565b604051808215151515815260200191505060405180910390f35b3480156105d057600080fd5b50610625600480360381019080803573ffffffffffffffffffffffffffffffffffffffff169060200190929190803573ffffffffffffffffffffffffffffffffffffffff16906020019092919050505061116c565b6040518082815260200191505060405180910390f35b34801561064757600080fd5b506106506111f3565b6040518082815260200191505060405180910390f35b60008073ffffffffffffffffffffffffffffffffffffffff168373ffffffffffffffffffffffffffffffffffffffff16141515156106a357600080fd5b81603460003373ffffffffffffffffffffffffffffffffffffffff1673ffffffffffffffffffffffffffffffffffffffff16815260200190815260200160002060008573ffffffffffffffffffffffffffffffffffffffff1673ffffffffffffffffffffffffffffffffffffffff168152602001908152602001600020819055508273ffffffffffffffffffffffffffffffffffffffff163373ffffffffffffffffffffffffffffffffffffffff167f8c5be1e5ebec7d5bd14f71427d1e84f3dd0314c0f7b2291e5b200ac8c7c3b925846040518082815260200191505060405180910390a36001905092915050565b60eb60009054906101000a900463ffffffff1681565b6000603554905090565b6000603460008573ffffffffffffffffffffffffffffffffffffffff1673ffffffffffffffffffffffffffffffffffffffff16815260200190815260200160002060003373ffffffffffffffffffffffffffffffffffffffff1673ffffffffffffffffffffffffffffffffffffffff16815260200190815260200160002054821115151561084057600080fd5b6108cf82603460008773ffffffffffffffffffffffffffffffffffffffff1673ffffffffffffffffffffffffffffffffffffffff16815260200190815260200160002060003373ffffffffffffffffffffffffffffffffffffffff1673ffffffffffffffffffffffffffffffffffffffff168152602001908152602001600020546111f990919063ffffffff16565b603460008673ffffffffffffffffffffffffffffffffffffffff1673ffffffffffffffffffffffffffffffffffffffff16815260200190815260200160002060003373ffffffffffffffffffffffffffffffffffffffff1673ffffffffffffffffffffffffffffffffffffffff1681526020019081526020016000208190555061095a84848461121a565b600190509392505050565b6000806000806000808911801561097c5750600088115b801561098e575060008763ffffffff16115b80156109a95750620f424063ffffffff168763ffffffff1611155b15156109b457600080fd5b60008614156109c65760009450610a5a565b620f424063ffffffff168763ffffffff161415610a0957610a02886109f4888c61143890919063ffffffff16565b61147690919063ffffffff16565b9450610a5a565b610a1c88876114a090919063ffffffff16565b9150610a2d828989620f42406114c1565b80945081955050508260ff16610a4c858b61143890919063ffffffff16565b9060020a9004905088810394505b50505050949350505050565b60008073ffffffffffffffffffffffffffffffffffffffff168373ffffffffffffffffffffffffffffffffffffffff1614151515610aa357600080fd5b610b3282603460003373ffffffffffffffffffffffffffffffffffffffff1673ffffffffffffffffffffffffffffffffffffffff16815260200190815260200160002060008673ffffffffffffffffffffffffffffffffffffffff1673ffffffffffffffffffffffffffffffffffffffff168152602001908152602001600020546114a090919063ffffffff16565b603460003373ffffffffffffffffffffffffffffffffffffffff1673ffffffffffffffffffffffffffffffffffffffff16815260200190815260200160002060008573ffffffffffffffffffffffffffffffffffffffff1673ffffffffffffffffffffffffffffffffffffffff168152602001908152602001600020819055508273ffffffffffffffffffffffffffffffffffffffff163373ffffffffffffffffffffffffffffffffffffffff167f8c5be1e5ebec7d5bd14f71427d1e84f3dd0314c0f7b2291e5b200ac8c7c3b925603460003373ffffffffffffffffffffffffffffffffffffffff1673ffffffffffffffffffffffffffffffffffffffff16815260200190815260200160002060008773ffffffffffffffffffffffffffffffffffffffff1673ffffffffffffffffffffffffffffffffffffffff168152602001908152602001600020546040518082815260200191505060405180910390a36001905092915050565b60008060008060008060008a118015610cb65750600089115b8015610cc8575060008863ffffffff16115b8015610ce35750620f424063ffffffff168863ffffffff1611155b8015610cef5750898711155b1515610cfa57600080fd5b6000871415610d0c5760009550610dc4565b89871415610d1c57889550610dc4565b620f424063ffffffff168863ffffffff161415610d5f57610d588a610d4a898c61143890919063ffffffff16565b61147690919063ffffffff16565b9550610dc4565b868a039250610d738a84620f42408b6114c1565b8095508196505050610d8e858a61143890919063ffffffff16565b91508360ff16899060020a029050610dc185610db383856111f990919063ffffffff16565b61147690919063ffffffff16565b95505b5050505050949350505050565b60e98054600181600116156101000203166002900480601f016020809104026020016040519081016040528092919081815260200182805460018160011615610100020316600290048015610e675780601f10610e3c57610100808354040283529160200191610e67565b820191906000526020600020905b815481529060010190602001808311610e4a57829003601f168201915b505050505081565b6000610e98610e7c6107a9565b60ea5460eb60009054906101000a900463ffffffff1685610c9d565b9050919050565b6000603360008373ffffffffffffffffffffffffffffffffffffffff1673ffffffffffffffffffffffffffffffffffffffff168152602001908152602001600020549050919050565b60ea5481565b6000610f17610efb6107a9565b60ea5460eb60009054906101000a900463ffffffff1685610965565b9050919050565b60008073ffffffffffffffffffffffffffffffffffffffff168373ffffffffffffffffffffffffffffffffffffffff1614151515610f5b57600080fd5b610fea82603460003373ffffffffffffffffffffffffffffffffffffffff1673ffffffffffffffffffffffffffffffffffffffff16815260200190815260200160002060008673ffffffffffffffffffffffffffffffffffffffff1673ffffffffffffffffffffffffffffffffffffffff168152602001908152602001600020546111f990919063ffffffff16565b603460003373ffffffffffffffffffffffffffffffffffffffff1673ffffffffffffffffffffffffffffffffffffffff16815260200190815260200160002060008573ffffffffffffffffffffffffffffffffffffffff1673ffffffffffffffffffffffffffffffffffffffff168152602001908152602001600020819055508273ffffffffffffffffffffffffffffffffffffffff163373ffffffffffffffffffffffffffffffffffffffff167f8c5be1e5ebec7d5bd14f71427d1e84f3dd0314c0f7b2291e5b200ac8c7c3b925603460003373ffffffffffffffffffffffffffffffffffffffff1673ffffffffffffffffffffffffffffffffffffffff16815260200190815260200160002060008773ffffffffffffffffffffffffffffffffffffffff1673ffffffffffffffffffffffffffffffffffffffff168152602001908152602001600020546040518082815260200191505060405180910390a36001905092915050565b600061116233848461121a565b6001905092915050565b6000603460008473ffffffffffffffffffffffffffffffffffffffff1673ffffffffffffffffffffffffffffffffffffffff16815260200190815260200160002060008373ffffffffffffffffffffffffffffffffffffffff1673ffffffffffffffffffffffffffffffffffffffff16815260200190815260200160002054905092915050565b60ec5481565b60008083831115151561120b57600080fd5b82840390508091505092915050565b603360008473ffffffffffffffffffffffffffffffffffffffff1673ffffffffffffffffffffffffffffffffffffffff16815260200190815260200160002054811115151561126857600080fd5b600073ffffffffffffffffffffffffffffffffffffffff168273ffffffffffffffffffffffffffffffffffffffff16141515156112a457600080fd5b6112f681603360008673ffffffffffffffffffffffffffffffffffffffff1673ffffffffffffffffffffffffffffffffffffffff168152602001908152602001600020546111f990919063ffffffff16565b603360008573ffffffffffffffffffffffffffffffffffffffff1673ffffffffffffffffffffffffffffffffffffffff1681526020019081526020016000208190555061138b81603360008573ffffffffffffffffffffffffffffffffffffffff1673ffffffffffffffffffffffffffffffffffffffff168152602001908152602001600020546114a090919063ffffffff16565b603360008473ffffffffffffffffffffffffffffffffffffffff1673ffffffffffffffffffffffffffffffffffffffff168152602001908152602001600020819055508173ffffffffffffffffffffffffffffffffffffffff168373ffffffffffffffffffffffffffffffffffffffff167fddf252ad1be2c89b69c2b068fc378daa952ba7f163c4a11628f55a4df523b3ef836040518082815260200191505060405180910390a3505050565b600080600084141561144d576000915061146f565b828402905082848281151561145e57fe5b0414151561146b57600080fd5b8091505b5092915050565b60008060008311151561148857600080fd5b828481151561149357fe5b0490508091505092915050565b60008082840190508381101515156114b757600080fd5b8091505092915050565b6000806000806000807002000000000000000000000000000000008a1015156114e657fe5b888a1015151561155e576040517f08c379a000000000000000000000000000000000000000000000000000000000815260040180806020018281038252601c8152602001807f4261736573203c203120617265206e6f7420737570706f727465642e0000000081525060200191505060405180910390fd5b886f800000000000000000000000000000008b0281151561157b57fe5b04925070015bf0a8b1457695355fb8ac404e7a79e38310156115a7576115a083611631565b93506115b3565b6115b083611c00565b93505b8663ffffffff168863ffffffff1685028115156115cc57fe5b0491507008000000000000000000000000000000008210156115fc576115f182611d3b565b607f95509550611624565b611605826122fb565b905061161e81607f0360ff16839060020a9004826123bb565b81955095505b5050505094509492505050565b60008060008060008093506fd3094c70f034de4b96ff7d5b6f99fcd88610151561169b576f40000000000000000000000000000000840193506fd3094c70f034de4b96ff7d5b6f99fcd86f80000000000000000000000000000000870281151561169757fe5b0495505b6fa45af1e1f40c333b3de1db4dd55f29a7861015156116fa576f20000000000000000000000000000000840193506fa45af1e1f40c333b3de1db4dd55f29a76f8000000000000000000000000000000087028115156116f657fe5b0495505b6f910b022db7ae67ce76b441c27035c6a186101515611759576f10000000000000000000000000000000840193506f910b022db7ae67ce76b441c27035c6a16f80000000000000000000000000000000870281151561175557fe5b0495505b6f88415abbe9a76bead8d00cf112e4d4a8861015156117b8576f08000000000000000000000000000000840193506f88415abbe9a76bead8d00cf112e4d4a86f8000000000000000000000000000000087028115156117b457fe5b0495505b6f84102b00893f64c705e841d5d4064bd386101515611817576f04000000000000000000000000000000840193506f84102b00893f64c705e841d5d4064bd36f80000000000000000000000000000000870281151561181357fe5b0495505b6f8204055aaef1c8bd5c3259f4822735a286101515611876576f02000000000000000000000000000000840193506f8204055aaef1c8bd5c3259f4822735a26f80000000000000000000000000000000870281151561187257fe5b0495505b6f810100ab00222d861931c15e39b44e99861015156118d5576f01000000000000000000000000000000840193506f810100ab00222d861931c15e39b44e996f8000000000000000000000000000000087028115156118d157fe5b0495505b6f808040155aabbbe9451521693554f73386101515611933576e800000000000000000000000000000840193506f808040155aabbbe9451521693554f7336f80000000000000000000000000000000870281151561192f57fe5b0495505b6f80000000000000000000000000000000860392508291506f8000000000000000000000000000000083840281151561196857fe5b0490507001000000000000000000000000000000008370010000000000000000000000000000000003830281151561199c57fe5b04840193506f800000000000000000000000000000008183028115156119be57fe5b049150700200000000000000000000000000000000836faaaaaaaaaaaaaaaaaaaaaaaaaaaaaaaa0383028115156119f157fe5b04840193506f80000000000000000000000000000000818302811515611a1357fe5b049150700300000000000000000000000000000000836f99999999999999999999999999999999038302811515611a4657fe5b04840193506f80000000000000000000000000000000818302811515611a6857fe5b049150700400000000000000000000000000000000836f92492492492492492492492492492492038302811515611a9b57fe5b04840193506f80000000000000000000000000000000818302811515611abd57fe5b049150700500000000000000000000000000000000836f8e38e38e38e38e38e38e38e38e38e38e038302811515611af057fe5b04840193506f80000000000000000000000000000000818302811515611b1257fe5b049150700600000000000000000000000000000000836f8ba2e8ba2e8ba2e8ba2e8ba2e8ba2e8b038302811515611b4557fe5b04840193506f80000000000000000000000000000000818302811515611b6757fe5b049150700700000000000000000000000000000000836f89d89d89d89d89d89d89d89d89d89d89038302811515611b9a57fe5b04840193506f80000000000000000000000000000000818302811515611bbc57fe5b049150700800000000000000000000000000000000836f88888888888888888888888888888888038302811515611bef57fe5b048401935083945050505050919050565b600080600080600080935085925070010000000000000000000000000000000083101515611c7457611c4c6f8000000000000000000000000000000084811515611c4657fe5b046127df565b91508160ff16839060020a900492506f800000000000000000000000000000008260ff160293505b6f80000000000000000000000000000000831115611d0257607f90505b60008160ff161115611d01576f80000000000000000000000000000000838402811515611cba57fe5b04925070010000000000000000000000000000000083101515611cf5576001839060020a900492506001810360ff1660019060020a02840193505b80600190039050611c91565b5b6f05b9de1d10bf4103d647b0955897ba806f03f80fe03f80fe03f80fe03f80fe03f88502811515611d2f57fe5b04945050505050919050565b600080600080600092506f1000000000000000000000000000000085811515611d6057fe5b0691508190506f80000000000000000000000000000000828202811515611d8357fe5b0490506710e1b3be415a00008102830192506f80000000000000000000000000000000828202811515611db257fe5b0490506705a0913f6b1e00008102830192506f80000000000000000000000000000000828202811515611de157fe5b049050670168244fdac780008102830192506f80000000000000000000000000000000828202811515611e1057fe5b049050664807432bc180008102830192506f80000000000000000000000000000000828202811515611e3e57fe5b049050660c0135dca040008102830192506f80000000000000000000000000000000828202811515611e6c57fe5b0490506601b707b1cdc0008102830192506f80000000000000000000000000000000828202811515611e9a57fe5b0490506536e0f639b8008102830192506f80000000000000000000000000000000828202811515611ec757fe5b049050650618fee9f8008102830192506f80000000000000000000000000000000828202811515611ef457fe5b049050649c197dcc008102830192506f80000000000000000000000000000000828202811515611f2057fe5b049050640e30dce4008102830192506f80000000000000000000000000000000828202811515611f4c57fe5b04905064012ebd13008102830192506f80000000000000000000000000000000828202811515611f7857fe5b0490506317499f008102830192506f80000000000000000000000000000000828202811515611fa357fe5b0490506301a9d4808102830192506f80000000000000000000000000000000828202811515611fce57fe5b049050621c63808102830192506f80000000000000000000000000000000828202811515611ff857fe5b0490506201c6388102830192506f8000000000000000000000000000000082820281151561202257fe5b049050611ab88102830192506f8000000000000000000000000000000082820281151561204b57fe5b04905061017c8102830192506f8000000000000000000000000000000082820281151561207457fe5b04905060148102830192506f8000000000000000000000000000000082820281151561209c57fe5b04905060018102830192506f80000000000000000000000000000000826721c3677c82b40000858115156120cc57fe5b040101925060006f1000000000000000000000000000000086161415156121205770018ebef9eac820ae8682b9793ac6d1e7767001c3d6a24ed82218787d624d3e5eba95f9840281151561211c57fe5b0492505b60006f20000000000000000000000000000000861614151561216f577001368b2fc6f9609fe7aceb46aa619baed470018ebef9eac820ae8682b9793ac6d1e778840281151561216b57fe5b0492505b60006f4000000000000000000000000000000086161415156121bd576fbc5ab1b16779be3575bd8f0520a9f21f7001368b2fc6f9609fe7aceb46aa619baed584028115156121b957fe5b0492505b60006f80000000000000000000000000000000861614151561220a576f454aaa8efe072e7f6ddbab84b40a55c96fbc5ab1b16779be3575bd8f0520a9f21e840281151561220657fe5b0492505b60007001000000000000000000000000000000008616141515612258576f0960aadc109e7a3bf4578099615711ea6f454aaa8efe072e7f6ddbab84b40a55c5840281151561225457fe5b0492505b600070020000000000000000000000000000000086161415156122a5576e2bf84208204f5977f9a8cf01fdce3d6f0960aadc109e7a3bf4578099615711d784028115156122a157fe5b0492505b600070040000000000000000000000000000000086161415156122f0576d03c6ab775dd0b95b4cbee7e65d116e2bf84208204f5977f9a8cf01fdc30784028115156122ec57fe5b0492505b829350505050919050565b60008060008060209250607f91505b8160ff166001840160ff16101561235c57600282840160ff1681151561232c57fe5b0490508460698260ff1660808110151561234257fe5b015410151561235357809250612357565b8091505b61230a565b8460698360ff1660808110151561236f57fe5b0154101515612380578193506123b3565b8460698460ff1660808110151561239357fe5b01541015156123a4578293506123b3565b600015156123ae57fe5b600093505b505050919050565b6000806000849150600090508360ff168583029060020a900491506f03442c4e6074a82f1797f72ac00000008202810190508360ff168583029060020a900491506f0116b96f757c380fb287fd0e400000008202810190508360ff168583029060020a900491506e45ae5bdd5f0e03eca1ff43900000008202810190508360ff168583029060020a900491506e0defabf91302cd95b9ffda500000008202810190508360ff168583029060020a900491506e02529ca9832b22439efff9b80000008202810190508360ff168583029060020a900491506d54f1cf12bd04e516b6da880000008202810190508360ff168583029060020a900491506d0a9e39e257a09ca2d6db510000008202810190508360ff168583029060020a900491506d012e066e7b839fa050c3090000008202810190508360ff168583029060020a900491506c1e33d7d926c329a1ad1a8000008202810190508360ff168583029060020a900491506c02bee513bdb4a6b19b5f8000008202810190508360ff168583029060020a900491506b3a9316fa79b88eccf2a000008202810190508360ff168583029060020a900491506b048177ebe1fa8123752000008202810190508360ff168583029060020a900491506a5263fe90242dcbacf000008202810190508360ff168583029060020a900491506a057e22099c030d941000008202810190508360ff168583029060020a900491506957e22099c030d94100008202810190508360ff168583029060020a9004915069052b6b545699763100008202810190508360ff168583029060020a90049150684985f67696bf7480008202810190508360ff168583029060020a900491506803dea12ea99e4980008202810190508360ff168583029060020a900491506731880f2214b6e0008202810190508360ff168583029060020a9004915067025bcff56eb360008202810190508360ff168583029060020a90049150661b722e10ab10008202810190508360ff168583029060020a900491506601317c700770008202810190508360ff168583029060020a90049150650cba84aafa008202810190508360ff168583029060020a900491506482573a0a008202810190508360ff168583029060020a900491506405035ad9008202810190508360ff168583029060020a90049150632f881b008202810190508360ff168583029060020a900491506301b293408202810190508360ff168583029060020a90049150620efc408202810190508360ff168583029060020a90049150617fe08202810190508360ff168583029060020a900491506104208202810190508360ff168583029060020a9004915060218202810190508360ff168583029060020a9004915060018202810190508360ff1660019060020a02856f0688589cc0e9505e2f2fee5580000000838115156127d257fe5b0401019250505092915050565b6000806000806000925084915061010082101561281b575b6001821115612816576001829060020a900491506001830192506127f7565b612866565b608090505b60008160ff161115612865578060ff1660019060020a0282101515612852578060ff16829060020a9004915080831792505b60018160ff169060020a90049050612820565b5b8293505050509190505600a165627a7a723058205c3ae0bc900fc2bfb01dd1820e2d6ed31253e231a3352af310ab5e22faf6ff970029",
  "source": "pragma solidity ^0.4.24;\n\nimport \"openzeppelin-eth/contracts/token/ERC20/ERC20.sol\";\nimport \"./BancorFormula.sol\";\n\n/**\n * @title Bonding Curve\n * @dev Bonding curve contract based on Bacor formula\n * inspired by bancor protocol and simondlr\n * https://github.com/bancorprotocol/contracts\n * https://github.com/ConsenSys/curationmarkets/blob/master/CurationMarkets.sol\n */\ncontract BondingCurve is ERC20, BancorFormula {\n  uint256 public poolBalance;\n\n  /*\n    reserve ratio, represented in ppm, 1-1000000\n    1/3 corresponds to y= multiple * x^2\n    1/2 corresponds to y= multiple * x\n    2/3 corresponds to y= multiple * x^1/2\n    multiple will depends on contract initialization,\n    specificallytotalAmount and poolBalance parameters\n    we might want to add an 'initialize' function that will allow\n    the owner to send ether to the contract and mint a given amount of tokens\n  */\n  uint32 public reserveRatio;\n\n  /*\n    - Front-running attacks are currently mitigated by the following mechanisms:\n    TODO - minimum return argument for each conversion provides a way to define a minimum/maximum price for the transaction\n    - gas price limit prevents users from having control over the order of execution\n  */\n  uint256 public gasPrice = 0 wei; // maximum gas price for bancor transactions\n\n  event CurvedMint(address sender, uint256 amount, uint256 deposit);\n  event CurvedBurn(address sender, uint256 amount, uint256 reimbursement);\n\n  function calculateCurvedMintReturn(uint256 amount) public view returns (uint256) {\n    return calculatePurchaseReturn(totalSupply(), poolBalance, reserveRatio, amount);\n  }\n\n  function calculateCurvedBurnReturn(uint256 amount) public view returns (uint256) {\n    return calculateSaleReturn(totalSupply(), poolBalance, reserveRatio, amount);\n  }\n\n  /**\n   * @dev Mint tokens\n   */\n  function _curvedMint(uint256 deposit) internal returns (uint256) {\n    return _curvedMintFor(msg.sender, deposit);\n  }\n\n  function _curvedMintFor(address user, uint256 deposit) validGasPrice validMint(deposit) internal returns (uint256) {\n    uint256 amount = calculateCurvedMintReturn(deposit);\n    _mint(user, amount);\n    poolBalance = poolBalance.add(deposit);\n    emit CurvedMint(user, amount, deposit);\n    return amount;\n  }\n\n  /**\n   * @dev Burn tokens\n   * @param amount Amount of tokens to withdraw\n   */\n  function _curvedBurn(uint256 amount) internal returns (uint256) {\n    return _curvedBurnFor(msg.sender, amount);\n  }\n\n  function _curvedBurnFor(address user, uint256 amount) validGasPrice validBurn(amount) internal returns (uint256) {\n    uint256 reimbursement = calculateCurvedBurnReturn(amount);\n    poolBalance = poolBalance.sub(reimbursement);\n    _burn(user, amount);\n    emit CurvedBurn(user, amount, reimbursement);\n    return reimbursement;\n  }\n\n  // verifies that the gas price is lower than the universal limit\n  modifier validGasPrice() {\n    assert(tx.gasprice <= gasPrice);\n    _;\n  }\n\n  modifier validBurn(uint256 amount) {\n    require(amount > 0 && balanceOf(msg.sender) >= amount);\n    _;\n  }\n\n  modifier validMint(uint256 amount) {\n    require(amount > 0);\n    _;\n  }\n\n  /**\n    @dev Allows the owner to update the gas price limit\n    @param _gasPrice The new gas price limit\n  */\n  function _setGasPrice(uint256 _gasPrice) internal {\n    require(_gasPrice > 0);\n    gasPrice = _gasPrice;\n  }\n}\n",
  "sourcePath": "curve-bonded-tokens/contracts/BondingCurve.sol",
  "compiler": {
    "name": "solc",
    "version": "0.4.25+commit.59dbf8f1.Emscripten.clang"
  },
  "schemaVersion": "3.0.0-beta.1",
  "updatedAt": "2018-11-02T23:00:14.624Z"
}