{
  "contractName": "Medianizer",
  "abi": [
    {
      "constant": false,
      "inputs": [
        {
          "name": "owner_",
          "type": "address"
        }
      ],
      "name": "setOwner",
      "outputs": [],
      "payable": false,
      "stateMutability": "nonpayable",
      "type": "function"
    },
    {
      "constant": true,
      "inputs": [
        {
          "name": "",
          "type": "address"
        }
      ],
      "name": "indexes",
      "outputs": [
        {
          "name": "",
          "type": "bytes12"
        }
      ],
      "payable": false,
      "stateMutability": "view",
      "type": "function"
    },
    {
      "constant": true,
      "inputs": [],
      "name": "next",
      "outputs": [
        {
          "name": "",
          "type": "bytes12"
        }
      ],
      "payable": false,
      "stateMutability": "view",
      "type": "function"
    },
    {
      "constant": true,
      "inputs": [],
      "name": "read",
      "outputs": [
        {
          "name": "",
          "type": "bytes32"
        }
      ],
      "payable": false,
      "stateMutability": "view",
      "type": "function"
    },
    {
      "constant": true,
      "inputs": [],
      "name": "peek",
      "outputs": [
        {
          "name": "",
          "type": "bytes32"
        },
        {
          "name": "",
          "type": "bool"
        }
      ],
      "payable": false,
      "stateMutability": "view",
      "type": "function"
    },
    {
      "constant": true,
      "inputs": [
        {
          "name": "",
          "type": "bytes12"
        }
      ],
      "name": "values",
      "outputs": [
        {
          "name": "",
          "type": "address"
        }
      ],
      "payable": false,
      "stateMutability": "view",
      "type": "function"
    },
    {
      "constant": false,
      "inputs": [
        {
          "name": "authority_",
          "type": "address"
        }
      ],
      "name": "setAuthority",
      "outputs": [],
      "payable": false,
      "stateMutability": "nonpayable",
      "type": "function"
    },
    {
      "constant": true,
      "inputs": [],
      "name": "owner",
      "outputs": [
        {
          "name": "",
          "type": "address"
        }
      ],
      "payable": false,
      "stateMutability": "view",
      "type": "function"
    },
    {
      "constant": false,
      "inputs": [],
      "name": "void",
      "outputs": [],
      "payable": false,
      "stateMutability": "nonpayable",
      "type": "function"
    },
    {
      "constant": true,
      "inputs": [],
      "name": "authority",
      "outputs": [
        {
          "name": "",
          "type": "address"
        }
      ],
      "payable": false,
      "stateMutability": "view",
      "type": "function"
    },
    {
      "constant": true,
      "inputs": [],
      "name": "min",
      "outputs": [
        {
          "name": "",
          "type": "uint96"
        }
      ],
      "payable": false,
      "stateMutability": "view",
      "type": "function"
    },
    {
      "anonymous": true,
      "inputs": [
        {
          "indexed": true,
          "name": "sig",
          "type": "bytes4"
        },
        {
          "indexed": true,
          "name": "guy",
          "type": "address"
        },
        {
          "indexed": true,
          "name": "foo",
          "type": "bytes32"
        },
        {
          "indexed": true,
          "name": "bar",
          "type": "bytes32"
        },
        {
          "indexed": false,
          "name": "wad",
          "type": "uint256"
        },
        {
          "indexed": false,
          "name": "fax",
          "type": "bytes"
        }
      ],
      "name": "LogNote",
      "type": "event"
    },
    {
      "anonymous": false,
      "inputs": [
        {
          "indexed": true,
          "name": "authority",
          "type": "address"
        }
      ],
      "name": "LogSetAuthority",
      "type": "event"
    },
    {
      "anonymous": false,
      "inputs": [
        {
          "indexed": true,
          "name": "owner",
          "type": "address"
        }
      ],
      "name": "LogSetOwner",
      "type": "event"
    },
    {
      "constant": false,
      "inputs": [
        {
          "name": "wat",
          "type": "address"
        }
      ],
      "name": "set",
      "outputs": [],
      "payable": false,
      "stateMutability": "nonpayable",
      "type": "function"
    },
    {
      "constant": false,
      "inputs": [
        {
          "name": "pos",
          "type": "bytes12"
        },
        {
          "name": "wat",
          "type": "address"
        }
      ],
      "name": "set",
      "outputs": [],
      "payable": false,
      "stateMutability": "nonpayable",
      "type": "function"
    },
    {
      "constant": false,
      "inputs": [
        {
          "name": "min_",
          "type": "uint96"
        }
      ],
      "name": "setMin",
      "outputs": [],
      "payable": false,
      "stateMutability": "nonpayable",
      "type": "function"
    },
    {
      "constant": false,
      "inputs": [
        {
          "name": "next_",
          "type": "bytes12"
        }
      ],
      "name": "setNext",
      "outputs": [],
      "payable": false,
      "stateMutability": "nonpayable",
      "type": "function"
    },
    {
      "constant": false,
      "inputs": [
        {
          "name": "wat",
          "type": "address"
        }
      ],
      "name": "unset",
      "outputs": [],
      "payable": false,
      "stateMutability": "nonpayable",
      "type": "function"
    },
    {
      "constant": false,
      "inputs": [
        {
          "name": "pos",
          "type": "bytes12"
        }
      ],
      "name": "unset",
      "outputs": [],
      "payable": false,
      "stateMutability": "nonpayable",
      "type": "function"
    },
    {
      "constant": false,
      "inputs": [
        {
          "name": "",
          "type": "bytes32"
        }
      ],
      "name": "poke",
      "outputs": [],
      "payable": false,
      "stateMutability": "nonpayable",
      "type": "function"
    },
    {
      "constant": false,
      "inputs": [],
      "name": "poke",
      "outputs": [],
      "payable": false,
      "stateMutability": "nonpayable",
      "type": "function"
    },
    {
      "constant": true,
      "inputs": [],
      "name": "compute",
      "outputs": [
        {
          "name": "",
          "type": "bytes32"
        },
        {
          "name": "",
          "type": "bool"
        }
      ],
      "payable": false,
      "stateMutability": "view",
      "type": "function"
    }
  ],
  "bytecode": "0x608060405260017401000000000000000000000000000000000000000002600560006101000a8154816bffffffffffffffffffffffff0219169083740100000000000000000000000000000000000000009004021790555060016005600c6101000a8154816bffffffffffffffffffffffff02191690836bffffffffffffffffffffffff16021790555033600160006101000a81548173ffffffffffffffffffffffffffffffffffffffff021916908373ffffffffffffffffffffffffffffffffffffffff1602179055503373ffffffffffffffffffffffffffffffffffffffff167fce241d7ca1f669fee44b6fc00b8eba2df3bb514eed0f6f668f8f89096e81ed9460405160405180910390a2611d7a8061011c6000396000f300608060405260043610610112576000357c0100000000000000000000000000000000000000000000000000000000900463ffffffff16806313af4035146101175780631504460f1461015a578063181783581461018b5780631a43c338146101a25780632801617e146101e05780632966d1b9146102235780632db78d93146102665780634c8fe526146102eb57806357de26a41461034457806359e02dd714610377578063651dd0de146103b55780636ba5ef0d146104395780637a9e5e4b146104745780638da5cb5b146104b7578063ac4c25b21461050e578063beb38b4314610525578063bf7e214f14610589578063e0a1fdad146105e0578063f2c5925d14610624578063f889794514610668575b600080fd5b34801561012357600080fd5b50610158600480360381019080803573ffffffffffffffffffffffffffffffffffffffff1690602001909291905050506106af565b005b34801561016657600080fd5b50610189600480360381019080803560001916906020019092919050505061078e565b005b34801561019757600080fd5b506101a0610873565b005b3480156101ae57600080fd5b506101b7610882565b604051808360001916600019168152602001821515151581526020019250505060405180910390f35b3480156101ec57600080fd5b50610221600480360381019080803573ffffffffffffffffffffffffffffffffffffffff169060200190929190505050610e90565b005b34801561022f57600080fd5b50610264600480360381019080803573ffffffffffffffffffffffffffffffffffffffff169060200190929190505050610fc7565b005b34801561027257600080fd5b506102a7600480360381019080803573ffffffffffffffffffffffffffffffffffffffff169060200190929190505050611035565b604051808273ffffffffffffffffffffffffffffffffffffffff191673ffffffffffffffffffffffffffffffffffffffff1916815260200191505060405180910390f35b3480156102f757600080fd5b50610300611069565b604051808273ffffffffffffffffffffffffffffffffffffffff191673ffffffffffffffffffffffffffffffffffffffff1916815260200191505060405180910390f35b34801561035057600080fd5b50610359611090565b60405180826000191660001916815260200191505060405180910390f35b34801561038357600080fd5b5061038c6110b2565b604051808360001916600019168152602001821515151581526020019250505060405180910390f35b3480156103c157600080fd5b506103f7600480360381019080803573ffffffffffffffffffffffffffffffffffffffff191690602001909291905050506110d0565b604051808273ffffffffffffffffffffffffffffffffffffffff1673ffffffffffffffffffffffffffffffffffffffff16815260200191505060405180910390f35b34801561044557600080fd5b5061047260048036038101908080356bffffffffffffffffffffffff169060200190929190505050611103565b005b34801561048057600080fd5b506104b5600480360381019080803573ffffffffffffffffffffffffffffffffffffffff169060200190929190505050611236565b005b3480156104c357600080fd5b506104cc611313565b604051808273ffffffffffffffffffffffffffffffffffffffff1673ffffffffffffffffffffffffffffffffffffffff16815260200191505060405180910390f35b34801561051a57600080fd5b50610523611339565b005b34801561053157600080fd5b50610587600480360381019080803573ffffffffffffffffffffffffffffffffffffffff19169060200190929190803573ffffffffffffffffffffffffffffffffffffffff169060200190929190505050611439565b005b34801561059557600080fd5b5061059e611826565b604051808273ffffffffffffffffffffffffffffffffffffffff1673ffffffffffffffffffffffffffffffffffffffff16815260200191505060405180910390f35b3480156105ec57600080fd5b50610622600480360381019080803573ffffffffffffffffffffffffffffffffffffffff1916906020019092919050505061184b565b005b34801561063057600080fd5b50610666600480360381019080803573ffffffffffffffffffffffffffffffffffffffff19169060200190929190505050611859565b005b34801561067457600080fd5b5061067d6119b6565b60405180826bffffffffffffffffffffffff166bffffffffffffffffffffffff16815260200191505060405180910390f35b6106e56106e0336000357fffffffff00000000000000000000000000000000000000000000000000000000166119d4565b611c4b565b80600160006101000a81548173ffffffffffffffffffffffffffffffffffffffff021916908373ffffffffffffffffffffffffffffffffffffffff160217905550600160009054906101000a900473ffffffffffffffffffffffffffffffffffffffff1673ffffffffffffffffffffffffffffffffffffffff167fce241d7ca1f669fee44b6fc00b8eba2df3bb514eed0f6f668f8f89096e81ed9460405160405180910390a250565b60008060043591506024359050806000191682600019163373ffffffffffffffffffffffffffffffffffffffff166000357fffffffff00000000000000000000000000000000000000000000000000000000167bffffffffffffffffffffffffffffffffffffffffffffffffffffffff19163460003660405180848152602001806020018281038252848482818152602001925080828437820191505094505050505060405180910390a4610841610882565b60026000600160148491906101000a81548160ff02191690831515021790555083919050906000191690555050505050565b610880600060010261078e565b565b600080606060008060008060008060008060006001600560009054906101000a90047401000000000000000000000000000000000000000002740100000000000000000000000000000000000000009004036bffffffffffffffffffffffff166040519080825280602002602001820160405280156109105781602001602082028038833980820191505090505b50995060009850600197505b600560009054906101000a900474010000000000000000000000000000000000000000027401000000000000000000000000000000000000000090046bffffffffffffffffffffffff16886bffffffffffffffffffffffff161015610cf1576000600360008a740100000000000000000000000000000000000000000273ffffffffffffffffffffffffffffffffffffffff191673ffffffffffffffffffffffffffffffffffffffff1916815260200190815260200160002060009054906101000a900473ffffffffffffffffffffffffffffffffffffffff1673ffffffffffffffffffffffffffffffffffffffff16141515610ce4576003600089740100000000000000000000000000000000000000000273ffffffffffffffffffffffffffffffffffffffff191673ffffffffffffffffffffffffffffffffffffffff1916815260200190815260200160002060009054906101000a900473ffffffffffffffffffffffffffffffffffffffff1673ffffffffffffffffffffffffffffffffffffffff166359e02dd76040518163ffffffff167c01000000000000000000000000000000000000000000000000000000000281526004016040805180830381600087803b158015610aee57600080fd5b505af1158015610b02573d6000803e3d6000fd5b505050506040513d6040811015610b1857600080fd5b810190808051906020019092919080519060200190929190505050965096508515610ce3576000896bffffffffffffffffffffffff161480610b8a57508960018a036bffffffffffffffffffffffff16815181101515610b7457fe5b9060200190602002015160001916876000191610155b15610bc957868a8a6bffffffffffffffffffffffff16815181101515610bac57fe5b906020019060200201906000191690816000191681525050610cda565b600094505b89856bffffffffffffffffffffffff16815181101515610bea57fe5b90602001906020020151600019168760001916101515610c11578480600101955050610bce565b8893505b846bffffffffffffffffffffffff16846bffffffffffffffffffffffff161115610ca45789600185036bffffffffffffffffffffffff16815181101515610c5857fe5b906020019060200201518a856bffffffffffffffffffffffff16815181101515610c7e57fe5b906020019060200201906000191690816000191681525050838060019003945050610c15565b868a866bffffffffffffffffffffffff16815181101515610cc157fe5b9060200190602002019060001916908160001916815250505b88806001019950505b5b878060010198505061091c565b6005600c9054906101000a90046bffffffffffffffffffffffff166bffffffffffffffffffffffff16896bffffffffffffffffffffffff161015610d3d5760025460009b509b50610e82565b600060028a6bffffffffffffffffffffffff16811515610d5957fe5b066bffffffffffffffffffffffff161415610e345789600160028b6bffffffffffffffffffffffff16811515610d8b57fe5b04036bffffffffffffffffffffffff16815181101515610da757fe5b906020019060200201516001900491508960028a6bffffffffffffffffffffffff16811515610dd257fe5b046bffffffffffffffffffffffff16815181101515610ded57fe5b90602001906020020151600190049050610e18610e0a8383611c5a565b671bc16d674ec80000611c97565b6fffffffffffffffffffffffffffffffff166001029250610e7a565b89600260018b036bffffffffffffffffffffffff16811515610e5257fe5b046bffffffffffffffffffffffff16815181101515610e6d57fe5b9060200190602002015192505b8260019b509b505b505050505050505050509091565b6000610ec8610ec3336000357fffffffff00000000000000000000000000000000000000000000000000000000166119d4565b611c4b565b6001600560009054906101000a900474010000000000000000000000000000000000000000027401000000000000000000000000000000000000000090040174010000000000000000000000000000000000000000029050610f5b600074010000000000000000000000000000000000000000028273ffffffffffffffffffffffffffffffffffffffff19161415611c4b565b610f88600560009054906101000a9004740100000000000000000000000000000000000000000283611439565b80600560006101000a8154816bffffffffffffffffffffffff021916908374010000000000000000000000000000000000000000900402179055505050565b611032600460008373ffffffffffffffffffffffffffffffffffffffff1673ffffffffffffffffffffffffffffffffffffffff16815260200190815260200160002060009054906101000a900474010000000000000000000000000000000000000000026000611439565b50565b60046020528060005260406000206000915054906101000a9004740100000000000000000000000000000000000000000281565b600560009054906101000a9004740100000000000000000000000000000000000000000281565b600080600061109d6110b2565b915091506110aa81611c4b565b819250505090565b600080600254600160149054906101000a900460ff16915091509091565b60036020528060005260406000206000915054906101000a900473ffffffffffffffffffffffffffffffffffffffff1681565b60008060043591506024359050806000191682600019163373ffffffffffffffffffffffffffffffffffffffff166000357fffffffff00000000000000000000000000000000000000000000000000000000167bffffffffffffffffffffffffffffffffffffffffffffffffffffffff19163460003660405180848152602001806020018281038252848482818152602001925080828437820191505094505050505060405180910390a46111e46111df336000357fffffffff00000000000000000000000000000000000000000000000000000000166119d4565b611c4b565b6000836bffffffffffffffffffffffff16141561120057600080fd5b826005600c6101000a8154816bffffffffffffffffffffffff02191690836bffffffffffffffffffffffff160217905550505050565b61126c611267336000357fffffffff00000000000000000000000000000000000000000000000000000000166119d4565b611c4b565b806000806101000a81548173ffffffffffffffffffffffffffffffffffffffff021916908373ffffffffffffffffffffffffffffffffffffffff1602179055506000809054906101000a900473ffffffffffffffffffffffffffffffffffffffff1673ffffffffffffffffffffffffffffffffffffffff167f1abebea81bfa2637f28358c371278fb15ede7ea8dd28d2e03b112ff6d936ada460405160405180910390a250565b600160009054906101000a900473ffffffffffffffffffffffffffffffffffffffff1681565b60008060043591506024359050806000191682600019163373ffffffffffffffffffffffffffffffffffffffff166000357fffffffff00000000000000000000000000000000000000000000000000000000167bffffffffffffffffffffffffffffffffffffffffffffffffffffffff19163460003660405180848152602001806020018281038252848482818152602001925080828437820191505094505050505060405180910390a461141a611415336000357fffffffff00000000000000000000000000000000000000000000000000000000166119d4565b611c4b565b6000600160146101000a81548160ff0219169083151502179055505050565b60008060043591506024359050806000191682600019163373ffffffffffffffffffffffffffffffffffffffff166000357fffffffff00000000000000000000000000000000000000000000000000000000167bffffffffffffffffffffffffffffffffffffffffffffffffffffffff19163460003660405180848152602001806020018281038252848482818152602001925080828437820191505094505050505060405180910390a461151a611515336000357fffffffff00000000000000000000000000000000000000000000000000000000166119d4565b611c4b565b600074010000000000000000000000000000000000000000028473ffffffffffffffffffffffffffffffffffffffff1916141561155657600080fd5b60008373ffffffffffffffffffffffffffffffffffffffff161415801561160c575060007401000000000000000000000000000000000000000002600460008573ffffffffffffffffffffffffffffffffffffffff1673ffffffffffffffffffffffffffffffffffffffff16815260200190815260200160002060009054906101000a9004740100000000000000000000000000000000000000000273ffffffffffffffffffffffffffffffffffffffff191614155b1561161657600080fd5b6000740100000000000000000000000000000000000000000260046000600360008873ffffffffffffffffffffffffffffffffffffffff191673ffffffffffffffffffffffffffffffffffffffff1916815260200190815260200160002060009054906101000a900473ffffffffffffffffffffffffffffffffffffffff1673ffffffffffffffffffffffffffffffffffffffff1673ffffffffffffffffffffffffffffffffffffffff16815260200190815260200160002060006101000a8154816bffffffffffffffffffffffff0219169083740100000000000000000000000000000000000000009004021790555060008373ffffffffffffffffffffffffffffffffffffffff161415156117a05783600460008573ffffffffffffffffffffffffffffffffffffffff1673ffffffffffffffffffffffffffffffffffffffff16815260200190815260200160002060006101000a8154816bffffffffffffffffffffffff021916908374010000000000000000000000000000000000000000900402179055505b82600360008673ffffffffffffffffffffffffffffffffffffffff191673ffffffffffffffffffffffffffffffffffffffff1916815260200190815260200160002060006101000a81548173ffffffffffffffffffffffffffffffffffffffff021916908373ffffffffffffffffffffffffffffffffffffffff16021790555050505050565b6000809054906101000a900473ffffffffffffffffffffffffffffffffffffffff1681565b611856816000611439565b50565b60008060043591506024359050806000191682600019163373ffffffffffffffffffffffffffffffffffffffff166000357fffffffff00000000000000000000000000000000000000000000000000000000167bffffffffffffffffffffffffffffffffffffffffffffffffffffffff19163460003660405180848152602001806020018281038252848482818152602001925080828437820191505094505050505060405180910390a461193a611935336000357fffffffff00000000000000000000000000000000000000000000000000000000166119d4565b611c4b565b600074010000000000000000000000000000000000000000028373ffffffffffffffffffffffffffffffffffffffff1916141561197657600080fd5b82600560006101000a8154816bffffffffffffffffffffffff02191690837401000000000000000000000000000000000000000090040217905550505050565b6005600c9054906101000a90046bffffffffffffffffffffffff1681565b60003073ffffffffffffffffffffffffffffffffffffffff168373ffffffffffffffffffffffffffffffffffffffff161415611a135760019050611c45565b600160009054906101000a900473ffffffffffffffffffffffffffffffffffffffff1673ffffffffffffffffffffffffffffffffffffffff168373ffffffffffffffffffffffffffffffffffffffff161415611a725760019050611c45565b600073ffffffffffffffffffffffffffffffffffffffff166000809054906101000a900473ffffffffffffffffffffffffffffffffffffffff1673ffffffffffffffffffffffffffffffffffffffff161415611ad15760009050611c45565b6000809054906101000a900473ffffffffffffffffffffffffffffffffffffffff1673ffffffffffffffffffffffffffffffffffffffff1663b70096138430856040518463ffffffff167c0100000000000000000000000000000000000000000000000000000000028152600401808473ffffffffffffffffffffffffffffffffffffffff1673ffffffffffffffffffffffffffffffffffffffff1681526020018373ffffffffffffffffffffffffffffffffffffffff1673ffffffffffffffffffffffffffffffffffffffff168152602001827bffffffffffffffffffffffffffffffffffffffffffffffffffffffff19167bffffffffffffffffffffffffffffffffffffffffffffffffffffffff191681526020019350505050602060405180830381600087803b158015611c0757600080fd5b505af1158015611c1b573d6000803e3d6000fd5b505050506040513d6020811015611c3157600080fd5b810190808051906020019092919050505090505b92915050565b801515611c5757600080fd5b50565b6000826fffffffffffffffffffffffffffffffff168284019150816fffffffffffffffffffffffffffffffff1610151515611c9157fe5b92915050565b6000611d1f826fffffffffffffffffffffffffffffffff166002846fffffffffffffffffffffffffffffffff16811515611ccd57fe5b046fffffffffffffffffffffffffffffffff16670de0b6b3a76400006fffffffffffffffffffffffffffffffff16866fffffffffffffffffffffffffffffffff160201811515611d1957fe5b04611d27565b905092915050565b600081829150816fffffffffffffffffffffffffffffffff16141515611d4957fe5b9190505600a165627a7a7230582050013faaab9ac33672b526c56350db2e85029c3a5cc7bbddd28304a36d019cc50029",
  "source": "/// return median value of feeds\n\n// Copyright (C) 2017  DappHub, LLC\n\n// Licensed under the Apache License, Version 2.0 (the \"License\").\n// You may not use this file except in compliance with the License.\n\n// Unless required by applicable law or agreed to in writing, software\n// distributed under the License is distributed on an \"AS IS\" BASIS,\n// WITHOUT WARRANTIES OR CONDITIONS OF ANY KIND (express or implied).\n\npragma solidity ^0.4.24;\n\ncontract DSAuthority {\n    function canCall(\n        address src, address dst, bytes4 sig\n    ) constant returns (bool);\n}\n\ncontract DSAuthEvents {\n    event LogSetAuthority (address indexed authority);\n    event LogSetOwner     (address indexed owner);\n}\n\ncontract DSAuth is DSAuthEvents {\n    DSAuthority  public  authority;\n    address      public  owner;\n\n    function DSAuth() {\n        owner = msg.sender;\n        LogSetOwner(msg.sender);\n    }\n\n    function setOwner(address owner_)\n        auth\n    {\n        owner = owner_;\n        LogSetOwner(owner);\n    }\n\n    function setAuthority(DSAuthority authority_)\n        auth\n    {\n        authority = authority_;\n        LogSetAuthority(authority);\n    }\n\n    modifier auth {\n        assert(isAuthorized(msg.sender, msg.sig));\n        _;\n    }\n\n    modifier authorized(bytes4 sig) {\n        assert(isAuthorized(msg.sender, sig));\n        _;\n    }\n\n    function isAuthorized(address src, bytes4 sig) internal returns (bool) {\n        if (src == address(this)) {\n            return true;\n        } else if (src == owner) {\n            return true;\n        } else if (authority == DSAuthority(0)) {\n            return false;\n        } else {\n            return authority.canCall(src, this, sig);\n        }\n    }\n\n    function assert(bool x) internal {\n        if (!x) throw;\n    }\n}\n\ncontract DSNote {\n    event LogNote(\n        bytes4   indexed  sig,\n        address  indexed  guy,\n        bytes32  indexed  foo,\n        bytes32  indexed  bar,\n\tuint\t \t  wad,\n        bytes             fax\n    ) anonymous;\n\n    modifier note {\n        bytes32 foo;\n        bytes32 bar;\n\n        assembly {\n            foo := calldataload(4)\n            bar := calldataload(36)\n        }\n\n        LogNote(msg.sig, msg.sender, foo, bar, msg.value, msg.data);\n\n        _;\n    }\n}\n\ncontract DSMath {\n\n    /*\n    standard uint256 functions\n     */\n\n    function add(uint256 x, uint256 y) constant internal returns (uint256 z) {\n        assert((z = x + y) >= x);\n    }\n\n    function sub(uint256 x, uint256 y) constant internal returns (uint256 z) {\n        assert((z = x - y) <= x);\n    }\n\n    function mul(uint256 x, uint256 y) constant internal returns (uint256 z) {\n        assert((z = x * y) >= x);\n    }\n\n    function div(uint256 x, uint256 y) constant internal returns (uint256 z) {\n        z = x / y;\n    }\n\n    function min(uint256 x, uint256 y) constant internal returns (uint256 z) {\n        return x <= y ? x : y;\n    }\n    function max(uint256 x, uint256 y) constant internal returns (uint256 z) {\n        return x >= y ? x : y;\n    }\n\n    /*\n    uint128 functions (h is for half)\n     */\n\n\n    function hadd(uint128 x, uint128 y) constant internal returns (uint128 z) {\n        assert((z = x + y) >= x);\n    }\n\n    function hsub(uint128 x, uint128 y) constant internal returns (uint128 z) {\n        assert((z = x - y) <= x);\n    }\n\n    function hmul(uint128 x, uint128 y) constant internal returns (uint128 z) {\n        assert((z = x * y) >= x);\n    }\n\n    function hdiv(uint128 x, uint128 y) constant internal returns (uint128 z) {\n        z = x / y;\n    }\n\n    function hmin(uint128 x, uint128 y) constant internal returns (uint128 z) {\n        return x <= y ? x : y;\n    }\n    function hmax(uint128 x, uint128 y) constant internal returns (uint128 z) {\n        return x >= y ? x : y;\n    }\n\n\n    /*\n    int256 functions\n     */\n\n    function imin(int256 x, int256 y) constant internal returns (int256 z) {\n        return x <= y ? x : y;\n    }\n    function imax(int256 x, int256 y) constant internal returns (int256 z) {\n        return x >= y ? x : y;\n    }\n\n    /*\n    WAD math\n     */\n\n    uint128 constant WAD = 10 ** 18;\n\n    function wadd(uint128 x, uint128 y) constant internal returns (uint128) {\n        return hadd(x, y);\n    }\n\n    function wsub(uint128 x, uint128 y) constant internal returns (uint128) {\n        return hsub(x, y);\n    }\n\n    function wmul(uint128 x, uint128 y) constant internal returns (uint128 z) {\n        z = cast((uint256(x) * y + WAD / 2) / WAD);\n    }\n\n    function wdiv(uint128 x, uint128 y) constant internal returns (uint128 z) {\n        z = cast((uint256(x) * WAD + y / 2) / y);\n    }\n\n    function wmin(uint128 x, uint128 y) constant internal returns (uint128) {\n        return hmin(x, y);\n    }\n    function wmax(uint128 x, uint128 y) constant internal returns (uint128) {\n        return hmax(x, y);\n    }\n\n    /*\n    RAY math\n     */\n\n    uint128 constant RAY = 10 ** 27;\n\n    function radd(uint128 x, uint128 y) constant internal returns (uint128) {\n        return hadd(x, y);\n    }\n\n    function rsub(uint128 x, uint128 y) constant internal returns (uint128) {\n        return hsub(x, y);\n    }\n\n    function rmul(uint128 x, uint128 y) constant internal returns (uint128 z) {\n        z = cast((uint256(x) * y + RAY / 2) / RAY);\n    }\n\n    function rdiv(uint128 x, uint128 y) constant internal returns (uint128 z) {\n        z = cast((uint256(x) * RAY + y / 2) / y);\n    }\n\n    function rpow(uint128 x, uint64 n) constant internal returns (uint128 z) {\n        // This famous algorithm is called \"exponentiation by squaring\"\n        // and calculates x^n with x as fixed-point and n as regular unsigned.\n        //\n        // It's O(log n), instead of O(n) for naive repeated multiplication.\n        //\n        // These facts are why it works:\n        //\n        //  If n is even, then x^n = (x^2)^(n/2).\n        //  If n is odd,  then x^n = x * x^(n-1),\n        //   and applying the equation for even x gives\n        //    x^n = x * (x^2)^((n-1) / 2).\n        //\n        //  Also, EVM division is flooring and\n        //    floor[(n-1) / 2] = floor[n / 2].\n\n        z = n % 2 != 0 ? x : RAY;\n\n        for (n /= 2; n != 0; n /= 2) {\n            x = rmul(x, x);\n\n            if (n % 2 != 0) {\n                z = rmul(z, x);\n            }\n        }\n    }\n\n    function rmin(uint128 x, uint128 y) constant internal returns (uint128) {\n        return hmin(x, y);\n    }\n    function rmax(uint128 x, uint128 y) constant internal returns (uint128) {\n        return hmax(x, y);\n    }\n\n    function cast(uint256 x) constant internal returns (uint128 z) {\n        assert((z = uint128(x)) == x);\n    }\n\n}\n\ncontract DSThing is DSAuth, DSNote, DSMath {\n}\n\ncontract DSValue is DSThing {\n    bool    has;\n    bytes32 val;\n    function peek() constant returns (bytes32, bool) {\n        return (val,has);\n    }\n    function read() constant returns (bytes32) {\n        var (wut, has) = peek();\n        assert(has);\n        return wut;\n    }\n    function poke(bytes32 wut) note auth {\n        val = wut;\n        has = true;\n    }\n    function void() note auth { // unset the value\n        has = false;\n    }\n}\n\ncontract Medianizer is DSValue {\n    mapping (bytes12 => address) public values;\n    mapping (address => bytes12) public indexes;\n    bytes12 public next = 0x1;\n\n    uint96 public min = 0x1;\n\n    function set(address wat) auth {\n        bytes12 nextId = bytes12(uint96(next) + 1);\n        assert(nextId != 0x0);\n        set(next, wat);\n        next = nextId;\n    }\n\n    function set(bytes12 pos, address wat) note auth {\n        if (pos == 0x0) throw;\n\n        if (wat != 0 && indexes[wat] != 0) throw;\n\n        indexes[values[pos]] = 0; // Making sure to remove a possible existing address in that position\n\n        if (wat != 0) {\n            indexes[wat] = pos;\n        }\n\n        values[pos] = wat;\n    }\n\n    function setMin(uint96 min_) note auth {\n        if (min_ == 0x0) throw;\n        min = min_;\n    }\n\n    function setNext(bytes12 next_) note auth {\n        if (next_ == 0x0) throw;\n        next = next_;\n    }\n\n    function unset(bytes12 pos) {\n        set(pos, 0);\n    }\n\n    function unset(address wat) {\n        set(indexes[wat], 0);\n    }\n\n    function poke() {\n        poke(0);\n    }\n\n    function poke(bytes32) note {\n        (val, has) = compute();\n    }\n\n    function compute() constant returns (bytes32, bool) {\n        bytes32[] memory wuts = new bytes32[](uint96(next) - 1);\n        uint96 ctr = 0;\n        for (uint96 i = 1; i < uint96(next); i++) {\n            if (values[bytes12(i)] != 0) {\n                var (wut, wuz) = DSValue(values[bytes12(i)]).peek();\n                if (wuz) {\n                    if (ctr == 0 || wut >= wuts[ctr - 1]) {\n                        wuts[ctr] = wut;\n                    } else {\n                        uint96 j = 0;\n                        while (wut >= wuts[j]) {\n                            j++;\n                        }\n                        for (uint96 k = ctr; k > j; k--) {\n                            wuts[k] = wuts[k - 1];\n                        }\n                        wuts[j] = wut;\n                    }\n                    ctr++;\n                }\n            }\n        }\n\n        if (ctr < min) return (val, false);\n\n        bytes32 value;\n        if (ctr % 2 == 0) {\n            uint128 val1 = uint128(wuts[(ctr / 2) - 1]);\n            uint128 val2 = uint128(wuts[ctr / 2]);\n            value = bytes32(wdiv(hadd(val1, val2), 2 ether));\n        } else {\n            value = wuts[(ctr - 1) / 2];\n        }\n\n        return (value, true);\n    }\n\n}\n",
  "sourcePath": "/Users/tarrence/code/crypto/pop/contracts/Medianizer.sol",
  "compiler": {
    "name": "solc",
    "version": "0.4.25+commit.59dbf8f1.Emscripten.clang"
  },
  "schemaVersion": "3.0.0-beta.1",
  "updatedAt": "2018-10-11T14:09:42.186Z"
}