{
  "contractName": "MinterRole",
  "abi": [
    {
      "anonymous": false,
      "inputs": [
        {
          "indexed": true,
          "name": "account",
          "type": "address"
        }
      ],
      "name": "MinterAdded",
      "type": "event"
    },
    {
      "anonymous": false,
      "inputs": [
        {
          "indexed": true,
          "name": "account",
          "type": "address"
        }
      ],
      "name": "MinterRemoved",
      "type": "event"
    },
    {
      "constant": false,
      "inputs": [
        {
          "name": "sender",
          "type": "address"
        }
      ],
      "name": "initialize",
      "outputs": [],
      "payable": false,
      "stateMutability": "nonpayable",
      "type": "function"
    },
    {
      "constant": true,
      "inputs": [
        {
          "name": "account",
          "type": "address"
        }
      ],
      "name": "isMinter",
      "outputs": [
        {
          "name": "",
          "type": "bool"
        }
      ],
      "payable": false,
      "stateMutability": "view",
      "type": "function"
    },
    {
      "constant": false,
      "inputs": [
        {
          "name": "account",
          "type": "address"
        }
      ],
      "name": "addMinter",
      "outputs": [],
      "payable": false,
      "stateMutability": "nonpayable",
      "type": "function"
    },
    {
      "constant": false,
      "inputs": [],
      "name": "renounceMinter",
      "outputs": [],
      "payable": false,
      "stateMutability": "nonpayable",
      "type": "function"
    }
  ],
  "bytecode": "0x608060405234801561001057600080fd5b506105af806100206000396000f300608060405260043610610062576000357c0100000000000000000000000000000000000000000000000000000000900463ffffffff168063983b2d561461006757806398650275146100aa578063aa271e1a146100c1578063c4d66de81461011c575b600080fd5b34801561007357600080fd5b506100a8600480360381019080803573ffffffffffffffffffffffffffffffffffffffff16906020019092919050505061015f565b005b3480156100b657600080fd5b506100bf61017f565b005b3480156100cd57600080fd5b50610102600480360381019080803573ffffffffffffffffffffffffffffffffffffffff16906020019092919050505061018a565b604051808215151515815260200191505060405180910390f35b34801561012857600080fd5b5061015d600480360381019080803573ffffffffffffffffffffffffffffffffffffffff1690602001909291905050506101a7565b005b6101683361018a565b151561017357600080fd5b61017c816102f6565b50565b61018833610350565b565b60006101a08260336103aa90919063ffffffff16565b9050919050565b60008060019054906101000a900460ff16806101c757506101c661043e565b5b806101de57506000809054906101000a900460ff16155b1515610278576040517f08c379a000000000000000000000000000000000000000000000000000000000815260040180806020018281038252602e8152602001807f436f6e747261637420696e7374616e63652068617320616c726561647920626581526020017f656e20696e697469616c697a656400000000000000000000000000000000000081525060400191505060405180910390fd5b600060019054906101000a900460ff1690506001600060016101000a81548160ff02191690831515021790555060016000806101000a81548160ff0219169083151502179055506102c88261018a565b15156102d8576102d7826102f6565b5b80600060016101000a81548160ff0219169083151502179055505050565b61030a81603361044f90919063ffffffff16565b8073ffffffffffffffffffffffffffffffffffffffff167f6ae172837ea30b801fbfcdd4108aa1d5bf8ff775444fd70256b44e6bf3dfc3f660405160405180910390a250565b6103648160336104e990919063ffffffff16565b8073ffffffffffffffffffffffffffffffffffffffff167fe94479a9f7e1952cc78f2d6baab678adc1b772d936c6583def489e524cb6669260405160405180910390a250565b60008073ffffffffffffffffffffffffffffffffffffffff168273ffffffffffffffffffffffffffffffffffffffff16141515156103e757600080fd5b8260000160008373ffffffffffffffffffffffffffffffffffffffff1673ffffffffffffffffffffffffffffffffffffffff16815260200190815260200160002060009054906101000a900460ff16905092915050565b600080303b90506000811491505090565b600073ffffffffffffffffffffffffffffffffffffffff168173ffffffffffffffffffffffffffffffffffffffff161415151561048b57600080fd5b60018260000160008373ffffffffffffffffffffffffffffffffffffffff1673ffffffffffffffffffffffffffffffffffffffff16815260200190815260200160002060006101000a81548160ff0219169083151502179055505050565b600073ffffffffffffffffffffffffffffffffffffffff168173ffffffffffffffffffffffffffffffffffffffff161415151561052557600080fd5b60008260000160008373ffffffffffffffffffffffffffffffffffffffff1673ffffffffffffffffffffffffffffffffffffffff16815260200190815260200160002060006101000a81548160ff02191690831515021790555050505600a165627a7a723058200aecb10fdec21cb8bf2d9762f7314ea22f460af66d11ea4f3080140706b775970029",
  "source": "pragma solidity ^0.4.24;\n\nimport \"zos-lib/contracts/Initializable.sol\";\nimport \"../Roles.sol\";\n\n\ncontract MinterRole is Initializable {\n  using Roles for Roles.Role;\n\n  event MinterAdded(address indexed account);\n  event MinterRemoved(address indexed account);\n\n  Roles.Role private minters;\n\n  function initialize(address sender) public initializer {\n    if (!isMinter(sender)) {\n      _addMinter(sender);\n    }\n  }\n\n  modifier onlyMinter() {\n    require(isMinter(msg.sender));\n    _;\n  }\n\n  function isMinter(address account) public view returns (bool) {\n    return minters.has(account);\n  }\n\n  function addMinter(address account) public onlyMinter {\n    _addMinter(account);\n  }\n\n  function renounceMinter() public {\n    _removeMinter(msg.sender);\n  }\n\n  function _addMinter(address account) internal {\n    minters.add(account);\n    emit MinterAdded(account);\n  }\n\n  function _removeMinter(address account) internal {\n    minters.remove(account);\n    emit MinterRemoved(account);\n  }\n\n  uint256[50] private ______gap;\n}\n",
  "sourcePath": "openzeppelin-eth/contracts/access/roles/MinterRole.sol",
  "compiler": {
    "name": "solc",
    "version": "0.4.25+commit.59dbf8f1.Emscripten.clang"
  },
  "schemaVersion": "3.0.0-beta.1",
  "updatedAt": "2018-11-02T23:00:14.637Z"
}