{
  "contractName": "PatchStaking",
  "abi": [
    {
      "constant": false,
      "inputs": [
        {
          "name": "spender",
          "type": "address"
        },
        {
          "name": "value",
          "type": "uint256"
        }
      ],
      "name": "approve",
      "outputs": [
        {
          "name": "",
          "type": "bool"
        }
      ],
      "payable": false,
      "stateMutability": "nonpayable",
      "type": "function",
      "signature": "0x095ea7b3"
    },
    {
      "constant": true,
      "inputs": [],
      "name": "reserveRatio",
      "outputs": [
        {
          "name": "",
          "type": "uint32"
        }
      ],
      "payable": false,
      "stateMutability": "view",
      "type": "function",
      "signature": "0x0c7d5cd8"
    },
    {
      "constant": true,
      "inputs": [],
      "name": "totalSupply",
      "outputs": [
        {
          "name": "",
          "type": "uint256"
        }
      ],
      "payable": false,
      "stateMutability": "view",
      "type": "function",
      "signature": "0x18160ddd"
    },
    {
      "constant": true,
      "inputs": [
        {
          "name": "_supply",
          "type": "uint256"
        },
        {
          "name": "_connectorBalance",
          "type": "uint256"
        },
        {
          "name": "_connectorWeight",
          "type": "uint32"
        },
        {
          "name": "_depositAmount",
          "type": "uint256"
        }
      ],
      "name": "calculatePurchaseReturn",
      "outputs": [
        {
          "name": "",
          "type": "uint256"
        }
      ],
      "payable": false,
      "stateMutability": "view",
      "type": "function",
      "signature": "0x29a00e7c"
    },
    {
      "constant": true,
      "inputs": [],
      "name": "INITIAL_SUPPLY",
      "outputs": [
        {
          "name": "",
          "type": "uint256"
        }
      ],
      "payable": false,
      "stateMutability": "view",
      "type": "function",
      "signature": "0x2ff2e9dc"
    },
    {
      "constant": false,
      "inputs": [
        {
          "name": "spender",
          "type": "address"
        },
        {
          "name": "addedValue",
          "type": "uint256"
        }
      ],
      "name": "increaseAllowance",
      "outputs": [
        {
          "name": "",
          "type": "bool"
        }
      ],
      "payable": false,
      "stateMutability": "nonpayable",
      "type": "function",
      "signature": "0x39509351"
    },
    {
      "constant": true,
      "inputs": [
        {
          "name": "_supply",
          "type": "uint256"
        },
        {
          "name": "_connectorBalance",
          "type": "uint256"
        },
        {
          "name": "_connectorWeight",
          "type": "uint32"
        },
        {
          "name": "_sellAmount",
          "type": "uint256"
        }
      ],
      "name": "calculateSaleReturn",
      "outputs": [
        {
          "name": "",
          "type": "uint256"
        }
      ],
      "payable": false,
      "stateMutability": "view",
      "type": "function",
      "signature": "0x49f9b0f7"
    },
    {
      "constant": true,
      "inputs": [],
      "name": "version",
      "outputs": [
        {
          "name": "",
          "type": "string"
        }
      ],
      "payable": false,
      "stateMutability": "view",
      "type": "function",
      "signature": "0x54fd4d50"
    },
    {
      "constant": true,
      "inputs": [
        {
          "name": "amount",
          "type": "uint256"
        }
      ],
      "name": "calculateCurvedBurnReturn",
      "outputs": [
        {
          "name": "",
          "type": "uint256"
        }
      ],
      "payable": false,
      "stateMutability": "view",
      "type": "function",
      "signature": "0x6d6f1e01"
    },
    {
      "constant": true,
      "inputs": [
        {
          "name": "owner",
          "type": "address"
        }
      ],
      "name": "balanceOf",
      "outputs": [
        {
          "name": "",
          "type": "uint256"
        }
      ],
      "payable": false,
      "stateMutability": "view",
      "type": "function",
      "signature": "0x70a08231"
    },
    {
      "constant": true,
      "inputs": [],
      "name": "GAS_PRICE",
      "outputs": [
        {
          "name": "",
          "type": "uint256"
        }
      ],
      "payable": false,
      "stateMutability": "view",
      "type": "function",
      "signature": "0x8b0ee5a3"
    },
    {
      "constant": true,
      "inputs": [
        {
          "name": "amount",
          "type": "uint256"
        }
      ],
      "name": "calculateCurvedMintReturn",
      "outputs": [
        {
          "name": "",
          "type": "uint256"
        }
      ],
      "payable": false,
      "stateMutability": "view",
      "type": "function",
      "signature": "0x9a4f318b"
    },
    {
      "constant": true,
      "inputs": [],
      "name": "contributionsRewardPool",
      "outputs": [
        {
          "name": "",
          "type": "uint256"
        }
      ],
      "payable": false,
      "stateMutability": "view",
      "type": "function",
      "signature": "0x9d3c4ca8"
    },
    {
      "constant": false,
      "inputs": [
        {
          "name": "spender",
          "type": "address"
        },
        {
          "name": "subtractedValue",
          "type": "uint256"
        }
      ],
      "name": "decreaseAllowance",
      "outputs": [
        {
          "name": "",
          "type": "bool"
        }
      ],
      "payable": false,
      "stateMutability": "nonpayable",
      "type": "function",
      "signature": "0xa457c2d7"
    },
    {
      "constant": true,
      "inputs": [
        {
          "name": "owner",
          "type": "address"
        },
        {
          "name": "spender",
          "type": "address"
        }
      ],
      "name": "allowance",
      "outputs": [
        {
          "name": "",
          "type": "uint256"
        }
      ],
      "payable": false,
      "stateMutability": "view",
      "type": "function",
      "signature": "0xdd62ed3e"
    },
    {
      "constant": true,
      "inputs": [],
      "name": "RESERVE_RATIO",
      "outputs": [
        {
          "name": "",
          "type": "uint32"
        }
      ],
      "payable": false,
      "stateMutability": "view",
      "type": "function",
      "signature": "0xe37dbfd9"
    },
    {
      "constant": true,
      "inputs": [],
      "name": "poolBalance_",
      "outputs": [
        {
          "name": "",
          "type": "uint256"
        }
      ],
      "payable": false,
      "stateMutability": "view",
      "type": "function",
      "signature": "0xec24db86"
    },
    {
      "constant": true,
      "inputs": [],
      "name": "gasPrice",
      "outputs": [
        {
          "name": "",
          "type": "uint256"
        }
      ],
      "payable": false,
      "stateMutability": "view",
      "type": "function",
      "signature": "0xfe173b97"
    },
    {
      "anonymous": false,
      "inputs": [
        {
          "indexed": false,
          "name": "sender",
          "type": "address"
        },
        {
          "indexed": false,
          "name": "amount",
          "type": "uint256"
        },
        {
          "indexed": false,
          "name": "deposit",
          "type": "uint256"
        }
      ],
      "name": "CurvedMint",
      "type": "event",
      "signature": "0x65ab8b57af027ad387b3f608b0745de61b7dc81d07be6ded03736db32fe46bd9"
    },
    {
      "anonymous": false,
      "inputs": [
        {
          "indexed": false,
          "name": "sender",
          "type": "address"
        },
        {
          "indexed": false,
          "name": "amount",
          "type": "uint256"
        },
        {
          "indexed": false,
          "name": "reimbursement",
          "type": "uint256"
        }
      ],
      "name": "CurvedBurn",
      "type": "event",
      "signature": "0x14feb1b32dbb3ebf172a72bc6b201cb3ddcd8dd148da8b8ac41207f2d69bdd32"
    },
    {
      "anonymous": false,
      "inputs": [
        {
          "indexed": true,
          "name": "from",
          "type": "address"
        },
        {
          "indexed": true,
          "name": "to",
          "type": "address"
        },
        {
          "indexed": false,
          "name": "value",
          "type": "uint256"
        }
      ],
      "name": "Transfer",
      "type": "event",
      "signature": "0xddf252ad1be2c89b69c2b068fc378daa952ba7f163c4a11628f55a4df523b3ef"
    },
    {
      "anonymous": false,
      "inputs": [
        {
          "indexed": true,
          "name": "owner",
          "type": "address"
        },
        {
          "indexed": true,
          "name": "spender",
          "type": "address"
        },
        {
          "indexed": false,
          "name": "value",
          "type": "uint256"
        }
      ],
      "name": "Approval",
      "type": "event",
      "signature": "0x8c5be1e5ebec7d5bd14f71427d1e84f3dd0314c0f7b2291e5b200ac8c7c3b925"
    },
    {
      "constant": false,
      "inputs": [
        {
          "name": "_initialSupply",
          "type": "uint256"
        },
        {
          "name": "_reserveRatio",
          "type": "uint32"
        },
        {
          "name": "_gasPrice",
          "type": "uint256"
        }
      ],
      "name": "initialize",
      "outputs": [],
      "payable": false,
      "stateMutability": "nonpayable",
      "type": "function",
      "signature": "0x1cafa218"
    },
    {
      "constant": false,
      "inputs": [],
      "name": "initialize",
      "outputs": [],
      "payable": false,
      "stateMutability": "nonpayable",
      "type": "function",
      "signature": "0x8129fc1c"
    },
    {
      "constant": false,
      "inputs": [
        {
          "name": "user",
          "type": "address"
        }
      ],
      "name": "bondForUser",
      "outputs": [],
      "payable": true,
      "stateMutability": "payable",
      "type": "function",
      "signature": "0x95c0b492"
    },
    {
      "constant": false,
      "inputs": [],
      "name": "claimContributionRewards",
      "outputs": [],
      "payable": false,
      "stateMutability": "nonpayable",
      "type": "function",
      "signature": "0x4fd4389e"
    },
    {
      "constant": false,
      "inputs": [],
      "name": "poolBalance",
      "outputs": [
        {
          "name": "",
          "type": "uint256"
        }
      ],
      "payable": false,
      "stateMutability": "nonpayable",
      "type": "function",
      "signature": "0x96365d44"
    },
    {
      "constant": false,
      "inputs": [
        {
          "name": "to",
          "type": "address"
        },
        {
          "name": "value",
          "type": "uint256"
        }
      ],
      "name": "transfer",
      "outputs": [
        {
          "name": "",
          "type": "bool"
        }
      ],
      "payable": false,
      "stateMutability": "nonpayable",
      "type": "function",
      "signature": "0xa9059cbb"
    },
    {
      "constant": false,
      "inputs": [
        {
          "name": "from",
          "type": "address"
        },
        {
          "name": "to",
          "type": "address"
        },
        {
          "name": "value",
          "type": "uint256"
        }
      ],
      "name": "transferFrom",
      "outputs": [
        {
          "name": "",
          "type": "bool"
        }
      ],
      "payable": false,
      "stateMutability": "nonpayable",
      "type": "function",
      "signature": "0x23b872dd"
    }
  ],
  "bytecode": "0x60806040526040805190810160405280600381526020017f302e330000000000000000000000000000000000000000000000000000000000815250606890805190602001906200005192919062000f9a565b506040805190810160405280600381526020017f302e33000000000000000000000000000000000000000000000000000000000081525060e990805190602001906200009f92919062000f9a565b50600060eb55701c35fedd14ffffffffffffffffffffffff60696020608081101515620000c857fe5b0181905550701b0ce43b323fffffffffffffffffffffff60696021608081101515620000f057fe5b01819055507019f0028ec1ffffffffffffffffffffffff606960226080811015156200011857fe5b01819055507018ded91f0e7fffffffffffffffffffffff606960236080811015156200014057fe5b01819055507017d8ec7f0417ffffffffffffffffffffff606960246080811015156200016857fe5b01819055507016ddc6556cdbffffffffffffffffffffff606960256080811015156200019057fe5b01819055507015ecf52776a1ffffffffffffffffffffff60696026608081101515620001b857fe5b01819055507015060c256cb2ffffffffffffffffffffff60696027608081101515620001e057fe5b0181905550701428a2f98d72ffffffffffffffffffffff606960286080811015156200020857fe5b01819055507013545598e5c23fffffffffffffffffffff606960296080811015156200023057fe5b0181905550701288c4161ce1dfffffffffffffffffffff6069602a6080811015156200025857fe5b01819055507011c592761c666fffffffffffffffffffff6069602b6080811015156200028057fe5b018190555070110a688680a757ffffffffffffffffffff6069602c608081101515620002a857fe5b0181905550701056f1b5bedf77ffffffffffffffffffff6069602d608081101515620002d057fe5b0181905550700faadceceeff8bffffffffffffffffffff6069602e608081101515620002f857fe5b0181905550700f05dc6b27edadffffffffffffffffffff6069602f6080811015156200032057fe5b0181905550700e67a5a25da4107fffffffffffffffffff606960306080811015156200034857fe5b0181905550700dcff115b14eedffffffffffffffffffff606960316080811015156200037057fe5b0181905550700d3e7a392431239fffffffffffffffffff606960326080811015156200039857fe5b0181905550700cb2ff529eb71e4fffffffffffffffffff60696033608081101515620003c057fe5b0181905550700c2d415c3db974afffffffffffffffffff60696034608081101515620003e857fe5b0181905550700bad03e7d883f69bffffffffffffffffff606960356080811015156200041057fe5b0181905550700b320d03b2c343d5ffffffffffffffffff606960366080811015156200043857fe5b0181905550700abc25204e02828dffffffffffffffffff606960376080811015156200046057fe5b0181905550700a4b16f74ee4bb207fffffffffffffffff606960386080811015156200048857fe5b01819055507009deaf736ac1f569ffffffffffffffffff60696039608081101515620004b057fe5b0181905550700976bd9952c7aa957fffffffffffffffff6069603a608081101515620004d857fe5b01819055507009131271922eaa606fffffffffffffffff6069603b6080811015156200050057fe5b01819055507008b380f3558668c46fffffffffffffffff6069603c6080811015156200052857fe5b0181905550700857ddf0117efa215bffffffffffffffff6069603d6080811015156200055057fe5b01819055507007ffffffffffffffffffffffffffffffff6069603e6080811015156200057857fe5b01819055507007abbf6f6abb9d087fffffffffffffffff6069603f608081101515620005a057fe5b018190555070075af62cbac95f7dfa7fffffffffffffff60696040608081101515620005c857fe5b018190555070070d7fb7452e187ac13fffffffffffffff60696041608081101515620005f057fe5b01819055507006c3390ecc8af379295fffffffffffffff606960426080811015156200061857fe5b018190555070067c00a3b07ffc01fd6fffffffffffffff606960436080811015156200064057fe5b0181905550700637b647c39cbb9d3d27ffffffffffffff606960446080811015156200066857fe5b01819055507005f63b1fc104dbd39587ffffffffffffff606960456080811015156200069057fe5b01819055507005b771955b36e12f7235ffffffffffffff60696046608081101515620006b857fe5b018190555070057b3d49dda84556d6f6ffffffffffffff60696047608081101515620006e057fe5b018190555070054183095b2c8ececf30ffffffffffffff606960486080811015156200070857fe5b018190555070050a28be635ca2b888f77fffffffffffff606960496080811015156200073057fe5b01819055507004d5156639708c9db33c3fffffffffffff6069604a6080811015156200075857fe5b01819055507004a23105873875bd52dfdfffffffffffff6069604b6080811015156200078057fe5b0181905550700471649d87199aa990756fffffffffffff6069604c608081101515620007a857fe5b01819055507004429a21a029d4c1457cfbffffffffffff6069604d608081101515620007d057fe5b0181905550700415bc6d6fb7dd71af2cb3ffffffffffff6069604e608081101515620007f857fe5b01819055507003eab73b3bbfe282243ce1ffffffffffff6069604f6080811015156200082057fe5b01819055507003c1771ac9fb6b4c18e229ffffffffffff606960506080811015156200084857fe5b0181905550700399e96897690418f785257fffffffffff606960516080811015156200087057fe5b0181905550700373fc456c53bb779bf0ea9fffffffffff606960526080811015156200089857fe5b018190555070034f9e8e490c48e67e6ab8bfffffffffff60696053608081101515620008c057fe5b018190555070032cbfd4a7adc790560b3337ffffffffff60696054608081101515620008e857fe5b018190555070030b50570f6e5d2acca94613ffffffffff606960556080811015156200091057fe5b01819055507002eb40f9f620fda6b56c2861ffffffffff606960566080811015156200093857fe5b01819055507002cc8340ecb0d0f520a6af58ffffffffff606960576080811015156200096057fe5b01819055507002af09481380a0a35cf1ba02ffffffffff606960586080811015156200098857fe5b0181905550700292c5bdd3b92ec810287b1b3fffffffff60696059608081101515620009b057fe5b0181905550700277abdcdab07d5a77ac6d6b9fffffffff6069605a608081101515620009d857fe5b018190555070025daf6654b1eaa55fd64df5efffffffff6069605b60808110151562000a0057fe5b0181905550700244c49c648baa98192dce88b7ffffffff6069605c60808110151562000a2857fe5b018190555070022ce03cd5619a311b2471268bffffffff6069605d60808110151562000a5057fe5b0181905550700215f77c045fbe885654a44a0fffffffff6069605e60808110151562000a7857fe5b01819055507001ffffffffffffffffffffffffffffffff6069605f60808110151562000aa057fe5b01819055507001eaefdbdaaee7421fc4d3ede5ffffffff6069606060808110151562000ac857fe5b01819055507001d6bd8b2eb257df7e8ca57b09bfffffff6069606160808110151562000af057fe5b01819055507001c35fedd14b861eb0443f7f133fffffff6069606260808110151562000b1857fe5b01819055507001b0ce43b322bcde4a56e8ada5afffffff6069606360808110151562000b4057fe5b018190555070019f0028ec1fff007f5a195a39dfffffff6069606460808110151562000b6857fe5b018190555070018ded91f0e72ee74f49b15ba527ffffff6069606560808110151562000b9057fe5b018190555070017d8ec7f04136f4e5615fd41a63ffffff6069606660808110151562000bb857fe5b018190555070016ddc6556cdb84bdc8d12d22e6fffffff6069606760808110151562000be057fe5b018190555070015ecf52776a1155b5bd8395814f7fffff6069606860808110151562000c0857fe5b018190555070015060c256cb23b3b3cc3754cf40ffffff60698060808110151562000c2f57fe5b01819055507001428a2f98d728ae223ddab715be3fffff6069606a60808110151562000c5757fe5b018190555070013545598e5c23276ccf0ede68034fffff6069606b60808110151562000c7f57fe5b01819055507001288c4161ce1d6f54b7f61081194fffff6069606c60808110151562000ca757fe5b018190555070011c592761c666aa641d5a01a40f17ffff6069606d60808110151562000ccf57fe5b0181905550700110a688680a7530515f3e6e6cfdcdffff6069606e60808110151562000cf757fe5b01819055507001056f1b5bedf75c6bcb2ce8aed428ffff6069606f60808110151562000d1f57fe5b01819055506ffaadceceeff8a0890f3875f008277fff6069607060808110151562000d4657fe5b01819055506ff05dc6b27edad306388a600f6ba0bfff6069607160808110151562000d6d57fe5b01819055506fe67a5a25da41063de1495d5b18cdbfff6069607260808110151562000d9457fe5b01819055506fdcff115b14eedde6fc3aa5353f2e4fff6069607360808110151562000dbb57fe5b01819055506fd3e7a3924312399f9aae2e0f868f8fff6069607460808110151562000de257fe5b01819055506fcb2ff529eb71e41582cccd5a1ee26fff6069607560808110151562000e0957fe5b01819055506fc2d415c3db974ab32a51840c0b67edff6069607660808110151562000e3057fe5b01819055506fbad03e7d883f69ad5b0a186184e06bff6069607760808110151562000e5757fe5b01819055506fb320d03b2c343d4829abd6075f0cc5ff6069607860808110151562000e7e57fe5b01819055506fabc25204e02828d73c6e80bcdb1a95bf6069607960808110151562000ea557fe5b01819055506fa4b16f74ee4bb2040a1ec6c15fbbf2df6069607a60808110151562000ecc57fe5b01819055506f9deaf736ac1f569deb1b5ae3f36c130f6069607b60808110151562000ef357fe5b01819055506f976bd9952c7aa957f5937d790ef650376069607c60808110151562000f1a57fe5b01819055506f9131271922eaa6064b73a22d0bd4f2bf6069607d60808110151562000f4157fe5b01819055506f8b380f3558668c46c91c49a2f8e967b96069607e60808110151562000f6857fe5b01819055506f857ddf0117efa215952912839f6473e66069607f60808110151562000f8f57fe5b018190555062001049565b828054600181600116156101000203166002900490600052602060002090601f016020900481019282601f1062000fdd57805160ff19168380011785556200100e565b828001600101855582156200100e579182015b828111156200100d57825182559160200191906001019062000ff0565b5b5090506200101d919062001021565b5090565b6200104691905b808211156200104257600081600090555060010162001028565b5090565b90565b61319080620010596000396000f300608060405260043610610149576000357c0100000000000000000000000000000000000000000000000000000000900463ffffffff168063095ea7b31461014e5780630c7d5cd8146101b357806318160ddd146101ea5780631cafa2181461021557806323b872dd1461025c57806329a00e7c146102e15780632ff2e9dc14610346578063395093511461037157806349f9b0f7146103d65780634fd4389e1461043b57806354fd4d50146104525780636d6f1e01146104e257806370a08231146105235780638129fc1c1461057a5780638b0ee5a31461059157806395c0b492146105bc57806396365d44146105f25780639a4f318b1461061d5780639d3c4ca81461065e578063a457c2d714610689578063a9059cbb146106ee578063dd62ed3e14610753578063e37dbfd9146107ca578063ec24db8614610801578063fe173b971461082c575b600080fd5b34801561015a57600080fd5b50610199600480360381019080803573ffffffffffffffffffffffffffffffffffffffff16906020019092919080359060200190929190505050610857565b604051808215151515815260200191505060405180910390f35b3480156101bf57600080fd5b506101c8610984565b604051808263ffffffff1663ffffffff16815260200191505060405180910390f35b3480156101f657600080fd5b506101ff61099a565b6040518082815260200191505060405180910390f35b34801561022157600080fd5b5061025a60048036038101908080359060200190929190803563ffffffff169060200190929190803590602001909291905050506109a4565b005b34801561026857600080fd5b506102c7600480360381019080803573ffffffffffffffffffffffffffffffffffffffff169060200190929190803573ffffffffffffffffffffffffffffffffffffffff16906020019092919080359060200190929190505050610b0e565b604051808215151515815260200191505060405180910390f35b3480156102ed57600080fd5b506103306004803603810190808035906020019092919080359060200190929190803563ffffffff16906020019092919080359060200190929190505050610b15565b6040518082815260200191505060405180910390f35b34801561035257600080fd5b5061035b610e35565b6040518082815260200191505060405180910390f35b34801561037d57600080fd5b506103bc600480360381019080803573ffffffffffffffffffffffffffffffffffffffff16906020019092919080359060200190929190505050610e3b565b604051808215151515815260200191505060405180910390f35b3480156103e257600080fd5b506104256004803603810190808035906020019092919080359060200190929190803563ffffffff16906020019092919080359060200190929190505050611072565b6040518082815260200191505060405180910390f35b34801561044757600080fd5b50610450611457565b005b34801561045e57600080fd5b506104676114ae565b6040518080602001828103825283818151815260200191508051906020019080838360005b838110156104a757808201518184015260208101905061048c565b50505050905090810190601f1680156104d45780820380516001836020036101000a031916815260200191505b509250505060405180910390f35b3480156104ee57600080fd5b5061050d6004803603810190808035906020019092919050505061154c565b6040518082815260200191505060405180910390f35b34801561052f57600080fd5b50610564600480360381019080803573ffffffffffffffffffffffffffffffffffffffff169060200190929190505050611581565b6040518082815260200191505060405180910390f35b34801561058657600080fd5b5061058f6115ca565b005b34801561059d57600080fd5b506105a661171b565b6040518082815260200191505060405180910390f35b6105f0600480360381019080803573ffffffffffffffffffffffffffffffffffffffff169060200190929190505050611724565b005b3480156105fe57600080fd5b5061060761174e565b6040518082815260200191505060405180910390f35b34801561062957600080fd5b5061064860048036038101908080359060200190929190505050611758565b6040518082815260200191505060405180910390f35b34801561066a57600080fd5b5061067361178d565b6040518082815260200191505060405180910390f35b34801561069557600080fd5b506106d4600480360381019080803573ffffffffffffffffffffffffffffffffffffffff16906020019092919080359060200190929190505050611793565b604051808215151515815260200191505060405180910390f35b3480156106fa57600080fd5b50610739600480360381019080803573ffffffffffffffffffffffffffffffffffffffff169060200190929190803590602001909291905050506119ca565b604051808215151515815260200191505060405180910390f35b34801561075f57600080fd5b506107b4600480360381019080803573ffffffffffffffffffffffffffffffffffffffff169060200190929190803573ffffffffffffffffffffffffffffffffffffffff1690602001909291905050506119d1565b6040518082815260200191505060405180910390f35b3480156107d657600080fd5b506107df611a58565b604051808263ffffffff1663ffffffff16815260200191505060405180910390f35b34801561080d57600080fd5b50610816611a5e565b6040518082815260200191505060405180910390f35b34801561083857600080fd5b50610841611a64565b6040518082815260200191505060405180910390f35b60008073ffffffffffffffffffffffffffffffffffffffff168373ffffffffffffffffffffffffffffffffffffffff161415151561089457600080fd5b81603460003373ffffffffffffffffffffffffffffffffffffffff1673ffffffffffffffffffffffffffffffffffffffff16815260200190815260200160002060008573ffffffffffffffffffffffffffffffffffffffff1673ffffffffffffffffffffffffffffffffffffffff168152602001908152602001600020819055508273ffffffffffffffffffffffffffffffffffffffff163373ffffffffffffffffffffffffffffffffffffffff167f8c5be1e5ebec7d5bd14f71427d1e84f3dd0314c0f7b2291e5b200ac8c7c3b925846040518082815260200191505060405180910390a36001905092915050565b60ea60009054906101000a900463ffffffff1681565b6000603554905090565b60008060019054906101000a900460ff16806109c457506109c3611a6a565b5b806109db57506000809054906101000a900460ff16155b1515610a75576040517f08c379a000000000000000000000000000000000000000000000000000000000815260040180806020018281038252602e8152602001807f436f6e747261637420696e7374616e63652068617320616c726561647920626581526020017f656e20696e697469616c697a656400000000000000000000000000000000000081525060400191505060405180910390fd5b600060019054906101000a900460ff1690506001600060016101000a81548160ff02191690831515021790555060016000806101000a81548160ff0219169083151502179055508260ea60006101000a81548163ffffffff021916908363ffffffff1602179055508160eb81905550610aee3385611a7b565b80600060016101000a81548160ff02191690831515021790555050505050565b6000806000fd5b60008060008060008089111515610b94576040517f08c379a000000000000000000000000000000000000000000000000000000000815260040180806020018281038252601e8152602001807f42616e636f72466f726d756c613a20537570706c79206e6f74203e20302e000081525060200191505060405180910390fd5b600088111515610c32576040517f08c379a00000000000000000000000000000000000000000000000000000000081526004018080602001828103825260278152602001807f42616e636f72466f726d756c613a20436f6e6e6563746f7242616c616e63652081526020017f6e6f74203e20300000000000000000000000000000000000000000000000000081525060400191505060405180910390fd5b60008763ffffffff16111515610cd6576040517f08c379a00000000000000000000000000000000000000000000000000000000081526004018080602001828103825260278152602001807f42616e636f72466f726d756c613a20436f6e6e6563746f72205765696768742081526020017f6e6f74203e20300000000000000000000000000000000000000000000000000081525060400191505060405180910390fd5b620f424063ffffffff168763ffffffff1611151515610d83576040517f08c379a00000000000000000000000000000000000000000000000000000000081526004018080602001828103825260318152602001807f42616e636f72466f726d756c613a20436f6e6e6563746f72205765696768742081526020017f6e6f74203c3d204d41585f57454947485400000000000000000000000000000081525060400191505060405180910390fd5b6000861415610d955760009450610e29565b620f424063ffffffff168763ffffffff161415610dd857610dd188610dc3888c611bbb90919063ffffffff16565b611bf990919063ffffffff16565b9450610e29565b610deb8887611c2390919063ffffffff16565b9150610dfc828989620f4240611c44565b80945081955050508260ff16610e1b858b611bbb90919063ffffffff16565b9060020a9004905088810394505b50505050949350505050565b6107d081565b60008073ffffffffffffffffffffffffffffffffffffffff168373ffffffffffffffffffffffffffffffffffffffff1614151515610e7857600080fd5b610f0782603460003373ffffffffffffffffffffffffffffffffffffffff1673ffffffffffffffffffffffffffffffffffffffff16815260200190815260200160002060008673ffffffffffffffffffffffffffffffffffffffff1673ffffffffffffffffffffffffffffffffffffffff16815260200190815260200160002054611c2390919063ffffffff16565b603460003373ffffffffffffffffffffffffffffffffffffffff1673ffffffffffffffffffffffffffffffffffffffff16815260200190815260200160002060008573ffffffffffffffffffffffffffffffffffffffff1673ffffffffffffffffffffffffffffffffffffffff168152602001908152602001600020819055508273ffffffffffffffffffffffffffffffffffffffff163373ffffffffffffffffffffffffffffffffffffffff167f8c5be1e5ebec7d5bd14f71427d1e84f3dd0314c0f7b2291e5b200ac8c7c3b925603460003373ffffffffffffffffffffffffffffffffffffffff1673ffffffffffffffffffffffffffffffffffffffff16815260200190815260200160002060008773ffffffffffffffffffffffffffffffffffffffff1673ffffffffffffffffffffffffffffffffffffffff168152602001908152602001600020546040518082815260200191505060405180910390a36001905092915050565b60008060008060008060008a1115156110f3576040517f08c379a000000000000000000000000000000000000000000000000000000000815260040180806020018281038252601e8152602001807f42616e636f72466f726d756c613a20537570706c79206e6f74203e20302e000081525060200191505060405180910390fd5b600089111515611191576040517f08c379a00000000000000000000000000000000000000000000000000000000081526004018080602001828103825260278152602001807f42616e636f72466f726d756c613a20436f6e6e6563746f7242616c616e63652081526020017f6e6f74203e20300000000000000000000000000000000000000000000000000081525060400191505060405180910390fd5b60008863ffffffff16111515611235576040517f08c379a00000000000000000000000000000000000000000000000000000000081526004018080602001828103825260278152602001807f42616e636f72466f726d756c613a20436f6e6e6563746f72205765696768742081526020017f6e6f74203e20300000000000000000000000000000000000000000000000000081525060400191505060405180910390fd5b620f424063ffffffff168863ffffffff16111515156112e2576040517f08c379a00000000000000000000000000000000000000000000000000000000081526004018080602001828103825260318152602001807f42616e636f72466f726d756c613a20436f6e6e6563746f72205765696768742081526020017f6e6f74203c3d204d41585f57454947485400000000000000000000000000000081525060400191505060405180910390fd5b898711151515611380576040517f08c379a00000000000000000000000000000000000000000000000000000000081526004018080602001828103825260288152602001807f42616e636f72466f726d756c613a2053656c6c20416d6f756e74206e6f74203c81526020017f3d20537570706c7900000000000000000000000000000000000000000000000081525060400191505060405180910390fd5b6000871415611392576000955061144a565b898714156113a25788955061144a565b620f424063ffffffff168863ffffffff1614156113e5576113de8a6113d0898c611bbb90919063ffffffff16565b611bf990919063ffffffff16565b955061144a565b868a0392506113f98a84620f42408b611c44565b8095508196505050611414858a611bbb90919063ffffffff16565b91508360ff16899060020a029050611447856114398385611db490919063ffffffff16565b611bf990919063ffffffff16565b95505b5050505050949350505050565b600061146233611dd5565b90503373ffffffffffffffffffffffffffffffffffffffff166108fc829081150290604051600060405180830381858888f193505050501580156114aa573d6000803e3d6000fd5b5050565b60e98054600181600116156101000203166002900480601f0160208091040260200160405190810160405280929190818152602001828054600181600116156101000203166002900480156115445780601f1061151957610100808354040283529160200191611544565b820191906000526020600020905b81548152906001019060200180831161152757829003601f168201915b505050505081565b600061157a61155961099a565b61156161174e565b60ea60009054906101000a900463ffffffff1685611072565b9050919050565b6000603360008373ffffffffffffffffffffffffffffffffffffffff1673ffffffffffffffffffffffffffffffffffffffff168152602001908152602001600020549050919050565b60008060019054906101000a900460ff16806115ea57506115e9611a6a565b5b8061160157506000809054906101000a900460ff16155b151561169b576040517f08c379a000000000000000000000000000000000000000000000000000000000815260040180806020018281038252602e8152602001807f436f6e747261637420696e7374616e63652068617320616c726561647920626581526020017f656e20696e697469616c697a656400000000000000000000000000000000000081525060400191505060405180910390fd5b600060019054906101000a900460ff1690506001600060016101000a81548160ff02191690831515021790555060016000806101000a81548160ff021916908315150217905550600160ec819055506116fe6107d061c350640ba43b74006109a4565b80600060016101000a81548160ff02191690831515021790555050565b640ba43b740081565b6117393460ed54611c2390919063ffffffff16565b60ed8190555061174a816001611e70565b5050565b600060ec54905090565b600061178661176561099a565b61176d61174e565b60ea60009054906101000a900463ffffffff1685610b15565b9050919050565b60ed5481565b60008073ffffffffffffffffffffffffffffffffffffffff168373ffffffffffffffffffffffffffffffffffffffff16141515156117d057600080fd5b61185f82603460003373ffffffffffffffffffffffffffffffffffffffff1673ffffffffffffffffffffffffffffffffffffffff16815260200190815260200160002060008673ffffffffffffffffffffffffffffffffffffffff1673ffffffffffffffffffffffffffffffffffffffff16815260200190815260200160002054611db490919063ffffffff16565b603460003373ffffffffffffffffffffffffffffffffffffffff1673ffffffffffffffffffffffffffffffffffffffff16815260200190815260200160002060008573ffffffffffffffffffffffffffffffffffffffff1673ffffffffffffffffffffffffffffffffffffffff168152602001908152602001600020819055508273ffffffffffffffffffffffffffffffffffffffff163373ffffffffffffffffffffffffffffffffffffffff167f8c5be1e5ebec7d5bd14f71427d1e84f3dd0314c0f7b2291e5b200ac8c7c3b925603460003373ffffffffffffffffffffffffffffffffffffffff1673ffffffffffffffffffffffffffffffffffffffff16815260200190815260200160002060008773ffffffffffffffffffffffffffffffffffffffff1673ffffffffffffffffffffffffffffffffffffffff168152602001908152602001600020546040518082815260200191505060405180910390a36001905092915050565b6000806000fd5b6000603460008473ffffffffffffffffffffffffffffffffffffffff1673ffffffffffffffffffffffffffffffffffffffff16815260200190815260200160002060008373ffffffffffffffffffffffffffffffffffffffff1673ffffffffffffffffffffffffffffffffffffffff16815260200190815260200160002054905092915050565b61c35081565b60ec5481565b60eb5481565b600080303b90506000811491505090565b60008273ffffffffffffffffffffffffffffffffffffffff1614151515611aa157600080fd5b611ab681603554611c2390919063ffffffff16565b603581905550611b0e81603360008573ffffffffffffffffffffffffffffffffffffffff1673ffffffffffffffffffffffffffffffffffffffff16815260200190815260200160002054611c2390919063ffffffff16565b603360008473ffffffffffffffffffffffffffffffffffffffff1673ffffffffffffffffffffffffffffffffffffffff168152602001908152602001600020819055508173ffffffffffffffffffffffffffffffffffffffff16600073ffffffffffffffffffffffffffffffffffffffff167fddf252ad1be2c89b69c2b068fc378daa952ba7f163c4a11628f55a4df523b3ef836040518082815260200191505060405180910390a35050565b6000806000841415611bd05760009150611bf2565b8284029050828482811515611be157fe5b04141515611bee57600080fd5b8091505b5092915050565b600080600083111515611c0b57600080fd5b8284811515611c1657fe5b0490508091505092915050565b6000808284019050838110151515611c3a57600080fd5b8091505092915050565b6000806000806000807002000000000000000000000000000000008a101515611c6957fe5b888a10151515611ce1576040517f08c379a000000000000000000000000000000000000000000000000000000000815260040180806020018281038252601c8152602001807f4261736573203c203120617265206e6f7420737570706f727465642e0000000081525060200191505060405180910390fd5b886f800000000000000000000000000000008b02811515611cfe57fe5b04925070015bf0a8b1457695355fb8ac404e7a79e3831015611d2a57611d2383611f24565b9350611d36565b611d33836124f3565b93505b8663ffffffff168863ffffffff168502811515611d4f57fe5b049150700800000000000000000000000000000000821015611d7f57611d748261262e565b607f95509550611da7565b611d8882612bee565b9050611da181607f0360ff16839060020a900482612cae565b81955095505b5050505094509492505050565b600080838311151515611dc657600080fd5b82840390508091505092915050565b6000806000611de384611581565b915060ee60008573ffffffffffffffffffffffffffffffffffffffff1673ffffffffffffffffffffffffffffffffffffffff168152602001908152602001600020549050611e6781611e59611e48611e3961099a565b86611bf990919063ffffffff16565b60ed54611bbb90919063ffffffff16565b611db490919063ffffffff16565b92505050919050565b60008060eb543a11151515611e8157fe5b82600081111515611e9157600080fd5b611e9a84611758565b9150611ea68583611a7b565b7f65ab8b57af027ad387b3f608b0745de61b7dc81d07be6ded03736db32fe46bd9858386604051808473ffffffffffffffffffffffffffffffffffffffff1673ffffffffffffffffffffffffffffffffffffffff168152602001838152602001828152602001935050505060405180910390a1819250505092915050565b60008060008060008093506fd3094c70f034de4b96ff7d5b6f99fcd886101515611f8e576f40000000000000000000000000000000840193506fd3094c70f034de4b96ff7d5b6f99fcd86f800000000000000000000000000000008702811515611f8a57fe5b0495505b6fa45af1e1f40c333b3de1db4dd55f29a786101515611fed576f20000000000000000000000000000000840193506fa45af1e1f40c333b3de1db4dd55f29a76f800000000000000000000000000000008702811515611fe957fe5b0495505b6f910b022db7ae67ce76b441c27035c6a18610151561204c576f10000000000000000000000000000000840193506f910b022db7ae67ce76b441c27035c6a16f80000000000000000000000000000000870281151561204857fe5b0495505b6f88415abbe9a76bead8d00cf112e4d4a8861015156120ab576f08000000000000000000000000000000840193506f88415abbe9a76bead8d00cf112e4d4a86f8000000000000000000000000000000087028115156120a757fe5b0495505b6f84102b00893f64c705e841d5d4064bd38610151561210a576f04000000000000000000000000000000840193506f84102b00893f64c705e841d5d4064bd36f80000000000000000000000000000000870281151561210657fe5b0495505b6f8204055aaef1c8bd5c3259f4822735a286101515612169576f02000000000000000000000000000000840193506f8204055aaef1c8bd5c3259f4822735a26f80000000000000000000000000000000870281151561216557fe5b0495505b6f810100ab00222d861931c15e39b44e99861015156121c8576f01000000000000000000000000000000840193506f810100ab00222d861931c15e39b44e996f8000000000000000000000000000000087028115156121c457fe5b0495505b6f808040155aabbbe9451521693554f73386101515612226576e800000000000000000000000000000840193506f808040155aabbbe9451521693554f7336f80000000000000000000000000000000870281151561222257fe5b0495505b6f80000000000000000000000000000000860392508291506f8000000000000000000000000000000083840281151561225b57fe5b0490507001000000000000000000000000000000008370010000000000000000000000000000000003830281151561228f57fe5b04840193506f800000000000000000000000000000008183028115156122b157fe5b049150700200000000000000000000000000000000836faaaaaaaaaaaaaaaaaaaaaaaaaaaaaaaa0383028115156122e457fe5b04840193506f8000000000000000000000000000000081830281151561230657fe5b049150700300000000000000000000000000000000836f9999999999999999999999999999999903830281151561233957fe5b04840193506f8000000000000000000000000000000081830281151561235b57fe5b049150700400000000000000000000000000000000836f9249249249249249249249249249249203830281151561238e57fe5b04840193506f800000000000000000000000000000008183028115156123b057fe5b049150700500000000000000000000000000000000836f8e38e38e38e38e38e38e38e38e38e38e0383028115156123e357fe5b04840193506f8000000000000000000000000000000081830281151561240557fe5b049150700600000000000000000000000000000000836f8ba2e8ba2e8ba2e8ba2e8ba2e8ba2e8b03830281151561243857fe5b04840193506f8000000000000000000000000000000081830281151561245a57fe5b049150700700000000000000000000000000000000836f89d89d89d89d89d89d89d89d89d89d8903830281151561248d57fe5b04840193506f800000000000000000000000000000008183028115156124af57fe5b049150700800000000000000000000000000000000836f888888888888888888888888888888880383028115156124e257fe5b048401935083945050505050919050565b6000806000806000809350859250700100000000000000000000000000000000831015156125675761253f6f800000000000000000000000000000008481151561253957fe5b046130d2565b91508160ff16839060020a900492506f800000000000000000000000000000008260ff160293505b6f800000000000000000000000000000008311156125f557607f90505b60008160ff1611156125f4576f800000000000000000000000000000008384028115156125ad57fe5b049250700100000000000000000000000000000000831015156125e8576001839060020a900492506001810360ff1660019060020a02840193505b80600190039050612584565b5b6f05b9de1d10bf4103d647b0955897ba806f03f80fe03f80fe03f80fe03f80fe03f8850281151561262257fe5b04945050505050919050565b600080600080600092506f100000000000000000000000000000008581151561265357fe5b0691508190506f8000000000000000000000000000000082820281151561267657fe5b0490506710e1b3be415a00008102830192506f800000000000000000000000000000008282028115156126a557fe5b0490506705a0913f6b1e00008102830192506f800000000000000000000000000000008282028115156126d457fe5b049050670168244fdac780008102830192506f8000000000000000000000000000000082820281151561270357fe5b049050664807432bc180008102830192506f8000000000000000000000000000000082820281151561273157fe5b049050660c0135dca040008102830192506f8000000000000000000000000000000082820281151561275f57fe5b0490506601b707b1cdc0008102830192506f8000000000000000000000000000000082820281151561278d57fe5b0490506536e0f639b8008102830192506f800000000000000000000000000000008282028115156127ba57fe5b049050650618fee9f8008102830192506f800000000000000000000000000000008282028115156127e757fe5b049050649c197dcc008102830192506f8000000000000000000000000000000082820281151561281357fe5b049050640e30dce4008102830192506f8000000000000000000000000000000082820281151561283f57fe5b04905064012ebd13008102830192506f8000000000000000000000000000000082820281151561286b57fe5b0490506317499f008102830192506f8000000000000000000000000000000082820281151561289657fe5b0490506301a9d4808102830192506f800000000000000000000000000000008282028115156128c157fe5b049050621c63808102830192506f800000000000000000000000000000008282028115156128eb57fe5b0490506201c6388102830192506f8000000000000000000000000000000082820281151561291557fe5b049050611ab88102830192506f8000000000000000000000000000000082820281151561293e57fe5b04905061017c8102830192506f8000000000000000000000000000000082820281151561296757fe5b04905060148102830192506f8000000000000000000000000000000082820281151561298f57fe5b04905060018102830192506f80000000000000000000000000000000826721c3677c82b40000858115156129bf57fe5b040101925060006f100000000000000000000000000000008616141515612a135770018ebef9eac820ae8682b9793ac6d1e7767001c3d6a24ed82218787d624d3e5eba95f98402811515612a0f57fe5b0492505b60006f200000000000000000000000000000008616141515612a62577001368b2fc6f9609fe7aceb46aa619baed470018ebef9eac820ae8682b9793ac6d1e7788402811515612a5e57fe5b0492505b60006f400000000000000000000000000000008616141515612ab0576fbc5ab1b16779be3575bd8f0520a9f21f7001368b2fc6f9609fe7aceb46aa619baed58402811515612aac57fe5b0492505b60006f800000000000000000000000000000008616141515612afd576f454aaa8efe072e7f6ddbab84b40a55c96fbc5ab1b16779be3575bd8f0520a9f21e8402811515612af957fe5b0492505b60007001000000000000000000000000000000008616141515612b4b576f0960aadc109e7a3bf4578099615711ea6f454aaa8efe072e7f6ddbab84b40a55c58402811515612b4757fe5b0492505b60007002000000000000000000000000000000008616141515612b98576e2bf84208204f5977f9a8cf01fdce3d6f0960aadc109e7a3bf4578099615711d78402811515612b9457fe5b0492505b60007004000000000000000000000000000000008616141515612be3576d03c6ab775dd0b95b4cbee7e65d116e2bf84208204f5977f9a8cf01fdc3078402811515612bdf57fe5b0492505b829350505050919050565b60008060008060209250607f91505b8160ff166001840160ff161015612c4f57600282840160ff16811515612c1f57fe5b0490508460698260ff16608081101515612c3557fe5b0154101515612c4657809250612c4a565b8091505b612bfd565b8460698360ff16608081101515612c6257fe5b0154101515612c7357819350612ca6565b8460698460ff16608081101515612c8657fe5b0154101515612c9757829350612ca6565b60001515612ca157fe5b600093505b505050919050565b6000806000849150600090508360ff168583029060020a900491506f03442c4e6074a82f1797f72ac00000008202810190508360ff168583029060020a900491506f0116b96f757c380fb287fd0e400000008202810190508360ff168583029060020a900491506e45ae5bdd5f0e03eca1ff43900000008202810190508360ff168583029060020a900491506e0defabf91302cd95b9ffda500000008202810190508360ff168583029060020a900491506e02529ca9832b22439efff9b80000008202810190508360ff168583029060020a900491506d54f1cf12bd04e516b6da880000008202810190508360ff168583029060020a900491506d0a9e39e257a09ca2d6db510000008202810190508360ff168583029060020a900491506d012e066e7b839fa050c3090000008202810190508360ff168583029060020a900491506c1e33d7d926c329a1ad1a8000008202810190508360ff168583029060020a900491506c02bee513bdb4a6b19b5f8000008202810190508360ff168583029060020a900491506b3a9316fa79b88eccf2a000008202810190508360ff168583029060020a900491506b048177ebe1fa8123752000008202810190508360ff168583029060020a900491506a5263fe90242dcbacf000008202810190508360ff168583029060020a900491506a057e22099c030d941000008202810190508360ff168583029060020a900491506957e22099c030d94100008202810190508360ff168583029060020a9004915069052b6b545699763100008202810190508360ff168583029060020a90049150684985f67696bf7480008202810190508360ff168583029060020a900491506803dea12ea99e4980008202810190508360ff168583029060020a900491506731880f2214b6e0008202810190508360ff168583029060020a9004915067025bcff56eb360008202810190508360ff168583029060020a90049150661b722e10ab10008202810190508360ff168583029060020a900491506601317c700770008202810190508360ff168583029060020a90049150650cba84aafa008202810190508360ff168583029060020a900491506482573a0a008202810190508360ff168583029060020a900491506405035ad9008202810190508360ff168583029060020a90049150632f881b008202810190508360ff168583029060020a900491506301b293408202810190508360ff168583029060020a90049150620efc408202810190508360ff168583029060020a90049150617fe08202810190508360ff168583029060020a900491506104208202810190508360ff168583029060020a9004915060218202810190508360ff168583029060020a9004915060018202810190508360ff1660019060020a02856f0688589cc0e9505e2f2fee5580000000838115156130c557fe5b0401019250505092915050565b6000806000806000925084915061010082101561310e575b6001821115613109576001829060020a900491506001830192506130ea565b613159565b608090505b60008160ff161115613158578060ff1660019060020a0282101515613145578060ff16829060020a9004915080831792505b60018160ff169060020a90049050613113565b5b8293505050509190505600a165627a7a723058207f57e53636ba32c40c0ff67bdf11c469649433024efed9cea87890b313a65a2a0029",
  "source": "pragma solidity ^0.4.24;\n\nimport \"openzeppelin-eth/contracts/token/ERC721/ERC721.sol\";\nimport \"openzeppelin-eth/contracts/ownership/Ownable.sol\";\nimport \"openzeppelin-eth/contracts/math/SafeMath.sol\";\nimport \"curve-bonded-tokens/contracts/BondingCurve.sol\";\nimport \"zos-lib/contracts/Initializable.sol\";\n\n/**\n * @title Token Bonding Curve\n * @dev Token backed Bonding curve contract\n */\ncontract PatchStaking is Initializable, BondingCurve {\n  using SafeMath for uint256;\n\n  uint256 public constant INITIAL_SUPPLY = 2000;\n  uint32 public constant RESERVE_RATIO = 50000;\n  uint256 public constant GAS_PRICE = 50000000000 wei;\n\n  uint256 public poolBalance_;\n  uint256 public contributionsRewardPool;\n\n  mapping(address => uint) claimedRewards;\n\n  function initialize() initializer public {\n    poolBalance_ = 1;\n    BondingCurve.initialize(INITIAL_SUPPLY, RESERVE_RATIO, GAS_PRICE);\n  }\n\n  function bondForUser(address user) public payable {\n    contributionsRewardPool = contributionsRewardPool.add(msg.value);\n    _curvedMintFor(user, 1);\n  }\n\n  function calculateClaimForUser(address user) internal returns (uint256) {\n    uint balance = balanceOf(user);\n    uint claimed = claimedRewards[user];\n\n    /* Needs work */\n    return contributionsRewardPool.mul(balance.div(totalSupply())).sub(claimed);\n  }\n\n  function claimContributionRewards() public {\n    uint reward = calculateClaimForUser(msg.sender);\n    msg.sender.transfer(reward);\n  }\n\n  function poolBalance() public returns (uint256) {\n    return poolBalance_;\n  }\n\n  function transfer(address to, uint256 value) public returns (bool) {\n    revert();\n  }\n\n  function transferFrom(\n    address from,\n    address to,\n    uint256 value\n  )\n    public\n    returns (bool)\n  {\n    revert();\n  }\n}\n",
  "sourcePath": "/Users/tarrence/code/crypto/pop/contracts/PatchStaking.sol",
  "compiler": {
    "name": "solc",
    "version": "0.4.25+commit.59dbf8f1.Emscripten.clang"
  },
  "schemaVersion": "3.0.0-beta.1",
  "updatedAt": "2018-11-04T00:36:36.896Z"
}