{
  "contractName": "PatchToken",
  "abi": [
    {
      "constant": true,
      "inputs": [
        {
          "name": "interfaceId",
          "type": "bytes4"
        }
      ],
      "name": "supportsInterface",
      "outputs": [
        {
          "name": "",
          "type": "bool"
        }
      ],
      "payable": false,
      "stateMutability": "view",
      "type": "function"
    },
    {
      "constant": true,
      "inputs": [],
      "name": "name",
      "outputs": [
        {
          "name": "",
          "type": "string"
        }
      ],
      "payable": false,
      "stateMutability": "view",
      "type": "function"
    },
    {
      "constant": true,
      "inputs": [
        {
          "name": "tokenId",
          "type": "uint256"
        }
      ],
      "name": "getApproved",
      "outputs": [
        {
          "name": "",
          "type": "address"
        }
      ],
      "payable": false,
      "stateMutability": "view",
      "type": "function"
    },
    {
      "constant": false,
      "inputs": [
        {
          "name": "to",
          "type": "address"
        },
        {
          "name": "tokenId",
          "type": "uint256"
        }
      ],
      "name": "approve",
      "outputs": [],
      "payable": false,
      "stateMutability": "nonpayable",
      "type": "function"
    },
    {
      "constant": true,
      "inputs": [],
      "name": "totalSupply",
      "outputs": [
        {
          "name": "",
          "type": "uint256"
        }
      ],
      "payable": false,
      "stateMutability": "view",
      "type": "function"
    },
    {
      "constant": false,
      "inputs": [
        {
          "name": "from",
          "type": "address"
        },
        {
          "name": "to",
          "type": "address"
        },
        {
          "name": "tokenId",
          "type": "uint256"
        }
      ],
      "name": "transferFrom",
      "outputs": [],
      "payable": false,
      "stateMutability": "nonpayable",
      "type": "function"
    },
    {
      "constant": true,
      "inputs": [],
      "name": "endtime",
      "outputs": [
        {
          "name": "",
          "type": "uint256"
        }
      ],
      "payable": false,
      "stateMutability": "view",
      "type": "function"
    },
    {
      "constant": true,
      "inputs": [
        {
          "name": "owner",
          "type": "address"
        },
        {
          "name": "index",
          "type": "uint256"
        }
      ],
      "name": "tokenOfOwnerByIndex",
      "outputs": [
        {
          "name": "",
          "type": "uint256"
        }
      ],
      "payable": false,
      "stateMutability": "view",
      "type": "function"
    },
    {
      "constant": false,
      "inputs": [
        {
          "name": "from",
          "type": "address"
        },
        {
          "name": "to",
          "type": "address"
        },
        {
          "name": "tokenId",
          "type": "uint256"
        }
      ],
      "name": "safeTransferFrom",
      "outputs": [],
      "payable": false,
      "stateMutability": "nonpayable",
      "type": "function"
    },
    {
      "constant": true,
      "inputs": [
        {
          "name": "index",
          "type": "uint256"
        }
      ],
      "name": "tokenByIndex",
      "outputs": [
        {
          "name": "",
          "type": "uint256"
        }
      ],
      "payable": false,
      "stateMutability": "view",
      "type": "function"
    },
    {
      "constant": false,
      "inputs": [
        {
          "name": "to",
          "type": "address"
        },
        {
          "name": "tokenId",
          "type": "uint256"
        },
        {
          "name": "tokenURI",
          "type": "string"
        }
      ],
      "name": "mintWithTokenURI",
      "outputs": [
        {
          "name": "",
          "type": "bool"
        }
      ],
      "payable": false,
      "stateMutability": "nonpayable",
      "type": "function"
    },
    {
      "constant": true,
      "inputs": [
        {
          "name": "tokenId",
          "type": "uint256"
        }
      ],
      "name": "ownerOf",
      "outputs": [
        {
          "name": "",
          "type": "address"
        }
      ],
      "payable": false,
      "stateMutability": "view",
      "type": "function"
    },
    {
      "constant": true,
      "inputs": [
        {
          "name": "owner",
          "type": "address"
        }
      ],
      "name": "balanceOf",
      "outputs": [
        {
          "name": "",
          "type": "uint256"
        }
      ],
      "payable": false,
      "stateMutability": "view",
      "type": "function"
    },
    {
      "constant": false,
      "inputs": [],
      "name": "renounceOwnership",
      "outputs": [],
      "payable": false,
      "stateMutability": "nonpayable",
      "type": "function"
    },
    {
      "constant": true,
      "inputs": [],
      "name": "metadataUri",
      "outputs": [
        {
          "name": "",
          "type": "string"
        }
      ],
      "payable": false,
      "stateMutability": "view",
      "type": "function"
    },
    {
      "constant": true,
      "inputs": [],
      "name": "owner",
      "outputs": [
        {
          "name": "",
          "type": "address"
        }
      ],
      "payable": false,
      "stateMutability": "view",
      "type": "function"
    },
    {
      "constant": true,
      "inputs": [],
      "name": "isOwner",
      "outputs": [
        {
          "name": "",
          "type": "bool"
        }
      ],
      "payable": false,
      "stateMutability": "view",
      "type": "function"
    },
    {
      "constant": true,
      "inputs": [],
      "name": "contributionPercent",
      "outputs": [
        {
          "name": "",
          "type": "uint256"
        }
      ],
      "payable": false,
      "stateMutability": "view",
      "type": "function"
    },
    {
      "constant": true,
      "inputs": [],
      "name": "symbol",
      "outputs": [
        {
          "name": "",
          "type": "string"
        }
      ],
      "payable": false,
      "stateMutability": "view",
      "type": "function"
    },
    {
      "constant": false,
      "inputs": [
        {
          "name": "account",
          "type": "address"
        }
      ],
      "name": "addMinter",
      "outputs": [],
      "payable": false,
      "stateMutability": "nonpayable",
      "type": "function"
    },
    {
      "constant": false,
      "inputs": [],
      "name": "renounceMinter",
      "outputs": [],
      "payable": false,
      "stateMutability": "nonpayable",
      "type": "function"
    },
    {
      "constant": true,
      "inputs": [],
      "name": "price",
      "outputs": [
        {
          "name": "",
          "type": "uint256"
        }
      ],
      "payable": false,
      "stateMutability": "view",
      "type": "function"
    },
    {
      "constant": false,
      "inputs": [
        {
          "name": "to",
          "type": "address"
        },
        {
          "name": "approved",
          "type": "bool"
        }
      ],
      "name": "setApprovalForAll",
      "outputs": [],
      "payable": false,
      "stateMutability": "nonpayable",
      "type": "function"
    },
    {
      "constant": true,
      "inputs": [
        {
          "name": "account",
          "type": "address"
        }
      ],
      "name": "isMinter",
      "outputs": [
        {
          "name": "",
          "type": "bool"
        }
      ],
      "payable": false,
      "stateMutability": "view",
      "type": "function"
    },
    {
      "constant": true,
      "inputs": [],
      "name": "numPatches",
      "outputs": [
        {
          "name": "",
          "type": "uint256"
        }
      ],
      "payable": false,
      "stateMutability": "view",
      "type": "function"
    },
    {
      "constant": false,
      "inputs": [
        {
          "name": "from",
          "type": "address"
        },
        {
          "name": "to",
          "type": "address"
        },
        {
          "name": "tokenId",
          "type": "uint256"
        },
        {
          "name": "_data",
          "type": "bytes"
        }
      ],
      "name": "safeTransferFrom",
      "outputs": [],
      "payable": false,
      "stateMutability": "nonpayable",
      "type": "function"
    },
    {
      "constant": true,
      "inputs": [
        {
          "name": "tokenId",
          "type": "uint256"
        }
      ],
      "name": "tokenURI",
      "outputs": [
        {
          "name": "",
          "type": "string"
        }
      ],
      "payable": false,
      "stateMutability": "view",
      "type": "function"
    },
    {
      "constant": true,
      "inputs": [],
      "name": "patchStakingImplementation",
      "outputs": [
        {
          "name": "",
          "type": "address"
        }
      ],
      "payable": false,
      "stateMutability": "view",
      "type": "function"
    },
    {
      "constant": true,
      "inputs": [
        {
          "name": "owner",
          "type": "address"
        },
        {
          "name": "operator",
          "type": "address"
        }
      ],
      "name": "isApprovedForAll",
      "outputs": [
        {
          "name": "",
          "type": "bool"
        }
      ],
      "payable": false,
      "stateMutability": "view",
      "type": "function"
    },
    {
      "constant": false,
      "inputs": [
        {
          "name": "newOwner",
          "type": "address"
        }
      ],
      "name": "transferOwnership",
      "outputs": [],
      "payable": false,
      "stateMutability": "nonpayable",
      "type": "function"
    },
    {
      "anonymous": false,
      "inputs": [
        {
          "indexed": false,
          "name": "patch",
          "type": "uint256"
        },
        {
          "indexed": false,
          "name": "staking",
          "type": "address"
        }
      ],
      "name": "DesignAdded",
      "type": "event"
    },
    {
      "anonymous": false,
      "inputs": [
        {
          "indexed": true,
          "name": "purchaser",
          "type": "address"
        }
      ],
      "name": "Purchase",
      "type": "event"
    },
    {
      "anonymous": false,
      "inputs": [
        {
          "indexed": true,
          "name": "previousOwner",
          "type": "address"
        }
      ],
      "name": "OwnershipRenounced",
      "type": "event"
    },
    {
      "anonymous": false,
      "inputs": [
        {
          "indexed": true,
          "name": "previousOwner",
          "type": "address"
        },
        {
          "indexed": true,
          "name": "newOwner",
          "type": "address"
        }
      ],
      "name": "OwnershipTransferred",
      "type": "event"
    },
    {
      "anonymous": false,
      "inputs": [
        {
          "indexed": true,
          "name": "account",
          "type": "address"
        }
      ],
      "name": "MinterAdded",
      "type": "event"
    },
    {
      "anonymous": false,
      "inputs": [
        {
          "indexed": true,
          "name": "account",
          "type": "address"
        }
      ],
      "name": "MinterRemoved",
      "type": "event"
    },
    {
      "anonymous": false,
      "inputs": [
        {
          "indexed": true,
          "name": "from",
          "type": "address"
        },
        {
          "indexed": true,
          "name": "to",
          "type": "address"
        },
        {
          "indexed": true,
          "name": "tokenId",
          "type": "uint256"
        }
      ],
      "name": "Transfer",
      "type": "event"
    },
    {
      "anonymous": false,
      "inputs": [
        {
          "indexed": true,
          "name": "owner",
          "type": "address"
        },
        {
          "indexed": true,
          "name": "approved",
          "type": "address"
        },
        {
          "indexed": true,
          "name": "tokenId",
          "type": "uint256"
        }
      ],
      "name": "Approval",
      "type": "event"
    },
    {
      "anonymous": false,
      "inputs": [
        {
          "indexed": true,
          "name": "owner",
          "type": "address"
        },
        {
          "indexed": true,
          "name": "operator",
          "type": "address"
        },
        {
          "indexed": false,
          "name": "approved",
          "type": "bool"
        }
      ],
      "name": "ApprovalForAll",
      "type": "event"
    },
    {
      "constant": false,
      "inputs": [
        {
          "name": "name",
          "type": "string"
        },
        {
          "name": "symbol",
          "type": "string"
        }
      ],
      "name": "initialize",
      "outputs": [],
      "payable": false,
      "stateMutability": "nonpayable",
      "type": "function"
    },
    {
      "constant": false,
      "inputs": [
        {
          "name": "_name",
          "type": "string"
        },
        {
          "name": "_symbol",
          "type": "string"
        },
        {
          "name": "_metadataUri",
          "type": "string"
        },
        {
          "name": "_patchStakingImplementation",
          "type": "address"
        }
      ],
      "name": "initialize",
      "outputs": [],
      "payable": false,
      "stateMutability": "nonpayable",
      "type": "function"
    },
    {
      "constant": false,
      "inputs": [],
      "name": "initialize",
      "outputs": [],
      "payable": false,
      "stateMutability": "nonpayable",
      "type": "function"
    },
    {
      "constant": false,
      "inputs": [
        {
          "name": "sender",
          "type": "address"
        }
      ],
      "name": "initialize",
      "outputs": [],
      "payable": false,
      "stateMutability": "nonpayable",
      "type": "function"
    },
    {
      "constant": false,
      "inputs": [
        {
          "name": "_metadataUri",
          "type": "string"
        }
      ],
      "name": "addDesign",
      "outputs": [],
      "payable": false,
      "stateMutability": "nonpayable",
      "type": "function"
    },
    {
      "constant": false,
      "inputs": [
        {
          "name": "duration",
          "type": "uint256"
        }
      ],
      "name": "startSale",
      "outputs": [],
      "payable": false,
      "stateMutability": "nonpayable",
      "type": "function"
    },
    {
      "constant": false,
      "inputs": [],
      "name": "purchase",
      "outputs": [],
      "payable": true,
      "stateMutability": "payable",
      "type": "function"
    },
    {
      "constant": false,
      "inputs": [
        {
          "name": "_patch",
          "type": "uint256"
        },
        {
          "name": "_tokenId",
          "type": "uint256"
        }
      ],
      "name": "pledge",
      "outputs": [],
      "payable": false,
      "stateMutability": "nonpayable",
      "type": "function"
    }
  ],
  "bytecode": "0x608060405267016345785d8a00006101a055600a6101a15560006101a35534801561002957600080fd5b506144b1806100396000396000f300608060405260043610620001ff576000357c0100000000000000000000000000000000000000000000000000000000900463ffffffff16806301ffc9a7146200020457806306fdde03146200026b578063081812fc1462000301578063095ea7b314620003715780630e3ab61d14620003c157806318160ddd14620003f157806323b872dd146200041f5780632ca126f8146200048f5780632f745c5914620004bd57806342842e0e14620005215780634cd88b7614620005915780634f6ccce7146200064357806350bb4e7f14620006875780635c6d8da114620007355780636352211e146200084d57806364edfbf014620008bd57806370a0823114620008c9578063715018a6146200092357806377a4d559146200093d5780638129fc1c14620009d35780638da5cb5b14620009ed5780638f32d59b1462000a4757806390dc129d1462000a7957806395d89b411462000aa7578063983b2d561462000b3d578063986502751462000b83578063a035b1fe1462000b9d578063a22cb4651462000bcb578063aa271e1a1462000c1d578063b2e460df1462000c7b578063b88d4fde1462000ca9578063c4d66de81462000d5f578063c87b56dd1462000da5578063e57f96471462000e51578063e694ef181462000ebd578063e985e9c51462000f17578063f2fde38b1462000f95578063fde327be1462000fdb575b600080fd5b3480156200021157600080fd5b506200025160048036038101908080357bffffffffffffffffffffffffffffffffffffffffffffffffffffffff1916906020019092919050505062001015565b604051808215151515815260200191505060405180910390f35b3480156200027857600080fd5b50620002836200107d565b6040518080602001828103825283818151815260200191508051906020019080838360005b83811015620002c5578082015181840152602081019050620002a8565b50505050905090810190601f168015620002f35780820380516001836020036101000a031916815260200191505b509250505060405180910390f35b3480156200030e57600080fd5b506200032f6004803603810190808035906020019092919050505062001123565b604051808273ffffffffffffffffffffffffffffffffffffffff1673ffffffffffffffffffffffffffffffffffffffff16815260200191505060405180910390f35b3480156200037e57600080fd5b50620003bf600480360381019080803573ffffffffffffffffffffffffffffffffffffffff1690602001909291908035906020019092919050505062001177565b005b348015620003ce57600080fd5b50620003ef60048036038101908080359060200190929190505050620012c3565b005b348015620003fe57600080fd5b506200040962001362565b6040518082815260200191505060405180910390f35b3480156200042c57600080fd5b506200048d600480360381019080803573ffffffffffffffffffffffffffffffffffffffff169060200190929190803573ffffffffffffffffffffffffffffffffffffffff169060200190929190803590602001909291905050506200136f565b005b3480156200049c57600080fd5b50620004a762001448565b6040518082815260200191505060405180910390f35b348015620004ca57600080fd5b506200050b600480360381019080803573ffffffffffffffffffffffffffffffffffffffff169060200190929190803590602001909291905050506200144f565b6040518082815260200191505060405180910390f35b3480156200052e57600080fd5b506200058f600480360381019080803573ffffffffffffffffffffffffffffffffffffffff169060200190929190803573ffffffffffffffffffffffffffffffffffffffff16906020019092919080359060200190929190505050620014ca565b005b3480156200059e57600080fd5b5062000641600480360381019080803590602001908201803590602001908080601f0160208091040260200160405190810160405280939291908181526020018383808284378201915050505050509192919290803590602001908201803590602001908080601f0160208091040260200160405190810160405280939291908181526020018383808284378201915050505050509192919290505050620014ed565b005b3480156200065057600080fd5b5062000671600480360381019080803590602001909291905050506200169f565b6040518082815260200191505060405180910390f35b3480156200069457600080fd5b506200071b600480360381019080803573ffffffffffffffffffffffffffffffffffffffff16906020019092919080359060200190929190803590602001908201803590602001908080601f0160208091040260200160405190810160405280939291908181526020018383808284378201915050505050509192919290505050620016db565b604051808215151515815260200191505060405180910390f35b3480156200074257600080fd5b506200084b600480360381019080803590602001908201803590602001908080601f0160208091040260200160405190810160405280939291908181526020018383808284378201915050505050509192919290803590602001908201803590602001908080601f0160208091040260200160405190810160405280939291908181526020018383808284378201915050505050509192919290803590602001908201803590602001908080601f0160208091040260200160405190810160405280939291908181526020018383808284378201915050505050509192919290803573ffffffffffffffffffffffffffffffffffffffff16906020019092919050505062001717565b005b3480156200085a57600080fd5b506200087b60048036038101908080359060200190929190505050620018e7565b604051808273ffffffffffffffffffffffffffffffffffffffff1673ffffffffffffffffffffffffffffffffffffffff16815260200191505060405180910390f35b620008c762001966565b005b348015620008d657600080fd5b506200090d600480360381019080803573ffffffffffffffffffffffffffffffffffffffff16906020019092919050505062001ba1565b6040518082815260200191505060405180910390f35b3480156200093057600080fd5b506200093b62001c26565b005b3480156200094a57600080fd5b506200095562001ce7565b6040518080602001828103825283818151815260200191508051906020019080838360005b83811015620009975780820151818401526020810190506200097a565b50505050905090810190601f168015620009c55780820380516001836020036101000a031916815260200191505b509250505060405180910390f35b348015620009e057600080fd5b50620009eb62001d8a565b005b348015620009fa57600080fd5b5062000a0562001f08565b604051808273ffffffffffffffffffffffffffffffffffffffff1673ffffffffffffffffffffffffffffffffffffffff16815260200191505060405180910390f35b34801562000a5457600080fd5b5062000a5f62001f33565b604051808215151515815260200191505060405180910390f35b34801562000a8657600080fd5b5062000a9162001f8c565b6040518082815260200191505060405180910390f35b34801562000ab457600080fd5b5062000abf62001f93565b6040518080602001828103825283818151815260200191508051906020019080838360005b8381101562000b0157808201518184015260208101905062000ae4565b50505050905090810190601f16801562000b2f5780820380516001836020036101000a031916815260200191505b509250505060405180910390f35b34801562000b4a57600080fd5b5062000b81600480360381019080803573ffffffffffffffffffffffffffffffffffffffff16906020019092919050505062002039565b005b34801562000b9057600080fd5b5062000b9b6200205e565b005b34801562000baa57600080fd5b5062000bb56200206b565b6040518082815260200191505060405180910390f35b34801562000bd857600080fd5b5062000c1b600480360381019080803573ffffffffffffffffffffffffffffffffffffffff16906020019092919080351515906020019092919050505062002072565b005b34801562000c2a57600080fd5b5062000c61600480360381019080803573ffffffffffffffffffffffffffffffffffffffff169060200190929190505050620021af565b604051808215151515815260200191505060405180910390f35b34801562000c8857600080fd5b5062000c93620021cf565b6040518082815260200191505060405180910390f35b34801562000cb657600080fd5b5062000d5d600480360381019080803573ffffffffffffffffffffffffffffffffffffffff169060200190929190803573ffffffffffffffffffffffffffffffffffffffff16906020019092919080359060200190929190803590602001908201803590602001908080601f0160208091040260200160405190810160405280939291908181526020018383808284378201915050505050509192919290505050620021d6565b005b34801562000d6c57600080fd5b5062000da3600480360381019080803573ffffffffffffffffffffffffffffffffffffffff16906020019092919050505062002203565b005b34801562000db257600080fd5b5062000dd36004803603810190808035906020019092919050505062002380565b6040518080602001828103825283818151815260200191508051906020019080838360005b8381101562000e1557808201518184015260208101905062000df8565b50505050905090810190601f16801562000e435780820380516001836020036101000a031916815260200191505b509250505060405180910390f35b34801562000e5e57600080fd5b5062000ebb600480360381019080803590602001908201803590602001908080601f016020809104026020016040519081016040528093929190818152602001838380828437820191505050505050919291929050505062002450565b005b34801562000eca57600080fd5b5062000ed56200267f565b604051808273ffffffffffffffffffffffffffffffffffffffff1673ffffffffffffffffffffffffffffffffffffffff16815260200191505060405180910390f35b34801562000f2457600080fd5b5062000f7b600480360381019080803573ffffffffffffffffffffffffffffffffffffffff169060200190929190803573ffffffffffffffffffffffffffffffffffffffff169060200190929190505050620026a6565b604051808215151515815260200191505060405180910390f35b34801562000fa257600080fd5b5062000fd9600480360381019080803573ffffffffffffffffffffffffffffffffffffffff1690602001909291905050506200273a565b005b34801562000fe857600080fd5b506200101360048036038101908080359060200190929190803590602001909291905050506200275e565b005b600060336000837bffffffffffffffffffffffffffffffffffffffffffffffffffffffff19167bffffffffffffffffffffffffffffffffffffffffffffffffffffffff1916815260200190815260200160002060009054906101000a900460ff169050919050565b606060d28054600181600116156101000203166002900480601f016020809104026020016040519081016040528092919081815260200182805460018160011615610100020316600290048015620011195780601f10620010ed5761010080835404028352916020019162001119565b820191906000526020600020905b815481529060010190602001808311620010fb57829003601f168201915b5050505050905090565b6000620011308262002aed565b15156200113c57600080fd5b6067600083815260200190815260200160002060009054906101000a900473ffffffffffffffffffffffffffffffffffffffff169050919050565b60006200118482620018e7565b90508073ffffffffffffffffffffffffffffffffffffffff168373ffffffffffffffffffffffffffffffffffffffff1614151515620011c257600080fd5b8073ffffffffffffffffffffffffffffffffffffffff163373ffffffffffffffffffffffffffffffffffffffff161480620012055750620012048133620026a6565b5b15156200121157600080fd5b826067600084815260200190815260200160002060006101000a81548173ffffffffffffffffffffffffffffffffffffffff021916908373ffffffffffffffffffffffffffffffffffffffff160217905550818373ffffffffffffffffffffffffffffffffffffffff168273ffffffffffffffffffffffffffffffffffffffff167f8c5be1e5ebec7d5bd14f71427d1e84f3dd0314c0f7b2291e5b200ac8c7c3b92560405160405180910390a4505050565b620012cd62001f33565b1515620012d957600080fd5b60006101a45414151562001355576040517f08c379a000000000000000000000000000000000000000000000000000000000815260040180806020018281038252601d8152602001807f5061746368546f6b656e3a2053616c652068617320737461727465642e00000081525060200191505060405180910390fd5b8042016101a48190555050565b6000609e80549050905090565b6200137b338262002b5f565b15156200138757600080fd5b600073ffffffffffffffffffffffffffffffffffffffff168273ffffffffffffffffffffffffffffffffffffffff1614151515620013c457600080fd5b620013d0838262002bfc565b620013dc838262002d03565b620013e8828262002ec7565b808273ffffffffffffffffffffffffffffffffffffffff168473ffffffffffffffffffffffffffffffffffffffff167fddf252ad1be2c89b69c2b068fc378daa952ba7f163c4a11628f55a4df523b3ef60405160405180910390a4505050565b6101a45481565b60006200145c8362001ba1565b821015156200146a57600080fd5b609c60008473ffffffffffffffffffffffffffffffffffffffff1673ffffffffffffffffffffffffffffffffffffffff16815260200190815260200160002082815481101515620014b757fe5b9060005260206000200154905092915050565b620014e88383836020604051908101604052806000815250620021d6565b505050565b60008060019054906101000a900460ff16806200151057506200150f62002fa0565b5b806200152857506000809054906101000a900460ff16155b1515620015c3576040517f08c379a000000000000000000000000000000000000000000000000000000000815260040180806020018281038252602e8152602001807f436f6e747261637420696e7374616e63652068617320616c726561647920626581526020017f656e20696e697469616c697a656400000000000000000000000000000000000081525060400191505060405180910390fd5b600060019054906101000a900460ff1690506001600060016101000a81548160ff02191690831515021790555060016000806101000a81548160ff0219169083151502179055506200161462002fb1565b15156200162057600080fd5b8260d29080519060200190620016389291906200405e565b508160d39080519060200190620016519291906200405e565b5062001680635b5e139f7c01000000000000000000000000000000000000000000000000000000000262002fe6565b80600060016101000a81548160ff021916908315150217905550505050565b6000620016ab62001362565b82101515620016b957600080fd5b609e82815481101515620016c957fe5b90600052602060002001549050919050565b6000620016e833620021af565b1515620016f457600080fd5b620017008484620030a5565b6200170c8383620030fe565b600190509392505050565b60008060019054906101000a900460ff16806200173a57506200173962002fa0565b5b806200175257506000809054906101000a900460ff16155b1515620017ed576040517f08c379a000000000000000000000000000000000000000000000000000000000815260040180806020018281038252602e8152602001807f436f6e747261637420696e7374616e63652068617320616c726561647920626581526020017f656e20696e697469616c697a656400000000000000000000000000000000000081525060400191505060405180910390fd5b600060019054906101000a900460ff1690506001600060016101000a81548160ff02191690831515021790555060016000806101000a81548160ff0219169083151502179055506200183e62003143565b6200184862001d8a565b620018548585620014ed565b6200185f30620032b5565b6200186a3362002203565b8261019f9080519060200190620018839291906200405e565b50816101a260006101000a81548173ffffffffffffffffffffffffffffffffffffffff021916908373ffffffffffffffffffffffffffffffffffffffff16021790555080600060016101000a81548160ff0219169083151502179055505050505050565b6000806066600084815260200190815260200160002060009054906101000a900473ffffffffffffffffffffffffffffffffffffffff169050600073ffffffffffffffffffffffffffffffffffffffff168173ffffffffffffffffffffffffffffffffffffffff16141515156200195d57600080fd5b80915050919050565b6000806101a45414151515620019e4576040517f08c379a000000000000000000000000000000000000000000000000000000000815260040180806020018281038252601c8152602001807f5061746368546f6b656e3a2053616c65206e6f74206163746976652e0000000081525060200191505060405180910390fd5b6101a4544210151562001a5f576040517f08c379a000000000000000000000000000000000000000000000000000000000815260040180806020018281038252601c8152602001807f5061746368546f6b656e3a2053616c65206e6f74206163746976652e0000000081525060200191505060405180910390fd5b6101a054341015151562001adb576040517f08c379a00000000000000000000000000000000000000000000000000000000081526004018080602001828103825260138152602001807f4e6f7420656e6f756768204554482073656e740000000000000000000000000081525060200191505060405180910390fd5b62001ae562001362565b905062001af33382620030a5565b62001b9e8161019f8054600181600116156101000203166002900480601f01602080910402602001604051908101604052809291908181526020018280546001816001161561010002031660029004801562001b935780601f1062001b675761010080835404028352916020019162001b93565b820191906000526020600020905b81548152906001019060200180831162001b7557829003601f168201915b5050505050620030fe565b50565b60008073ffffffffffffffffffffffffffffffffffffffff168273ffffffffffffffffffffffffffffffffffffffff161415151562001bdf57600080fd5b606860008373ffffffffffffffffffffffffffffffffffffffff1673ffffffffffffffffffffffffffffffffffffffff168152602001908152602001600020549050919050565b62001c3062001f33565b151562001c3c57600080fd5b61016c60009054906101000a900473ffffffffffffffffffffffffffffffffffffffff1673ffffffffffffffffffffffffffffffffffffffff167ff8df31144d9c2f0f6b59d69b8b98abd5459d07f2742c4df920b25aae33c6482060405160405180910390a2600061016c60006101000a81548173ffffffffffffffffffffffffffffffffffffffff021916908373ffffffffffffffffffffffffffffffffffffffff160217905550565b61019f8054600181600116156101000203166002900480601f01602080910402602001604051908101604052809291908181526020018280546001816001161561010002031660029004801562001d825780601f1062001d565761010080835404028352916020019162001d82565b820191906000526020600020905b81548152906001019060200180831162001d6457829003601f168201915b505050505081565b60008060019054906101000a900460ff168062001dad575062001dac62002fa0565b5b8062001dc557506000809054906101000a900460ff16155b151562001e60576040517f08c379a000000000000000000000000000000000000000000000000000000000815260040180806020018281038252602e8152602001807f436f6e747261637420696e7374616e63652068617320616c726561647920626581526020017f656e20696e697469616c697a656400000000000000000000000000000000000081525060400191505060405180910390fd5b600060019054906101000a900460ff1690506001600060016101000a81548160ff02191690831515021790555060016000806101000a81548160ff02191690831515021790555062001eb162002fb1565b151562001ebd57600080fd5b62001eeb63780e9d637c01000000000000000000000000000000000000000000000000000000000262002fe6565b80600060016101000a81548160ff02191690831515021790555050565b600061016c60009054906101000a900473ffffffffffffffffffffffffffffffffffffffff16905090565b600061016c60009054906101000a900473ffffffffffffffffffffffffffffffffffffffff1673ffffffffffffffffffffffffffffffffffffffff163373ffffffffffffffffffffffffffffffffffffffff1614905090565b6101a15481565b606060d38054600181600116156101000203166002900480601f0160208091040260200160405190810160405280929190818152602001828054600181600116156101000203166002900480156200202f5780601f1062002003576101008083540402835291602001916200202f565b820191906000526020600020905b8154815290600101906020018083116200201157829003601f168201915b5050505050905090565b6200204433620021af565b15156200205057600080fd5b6200205b8162003427565b50565b620020693362003484565b565b6101a05481565b3373ffffffffffffffffffffffffffffffffffffffff168273ffffffffffffffffffffffffffffffffffffffff1614151515620020ae57600080fd5b80606960003373ffffffffffffffffffffffffffffffffffffffff1673ffffffffffffffffffffffffffffffffffffffff16815260200190815260200160002060008473ffffffffffffffffffffffffffffffffffffffff1673ffffffffffffffffffffffffffffffffffffffff16815260200190815260200160002060006101000a81548160ff0219169083151502179055508173ffffffffffffffffffffffffffffffffffffffff163373ffffffffffffffffffffffffffffffffffffffff167f17307eab39ab6107e8899845ad3d59bd9653f200f220920489ca2b5937696c3183604051808215151515815260200191505060405180910390a35050565b6000620021c882610107620034e190919063ffffffff16565b9050919050565b6101a35481565b620021e38484846200136f565b620021f18484848462003576565b1515620021fd57600080fd5b50505050565b60008060019054906101000a900460ff16806200222657506200222562002fa0565b5b806200223e57506000809054906101000a900460ff16155b1515620022d9576040517f08c379a000000000000000000000000000000000000000000000000000000000815260040180806020018281038252602e8152602001807f436f6e747261637420696e7374616e63652068617320616c726561647920626581526020017f656e20696e697469616c697a656400000000000000000000000000000000000081525060400191505060405180910390fd5b600060019054906101000a900460ff1690506001600060016101000a81548160ff02191690831515021790555060016000806101000a81548160ff0219169083151502179055508161016c60006101000a81548173ffffffffffffffffffffffffffffffffffffffff021916908373ffffffffffffffffffffffffffffffffffffffff16021790555080600060016101000a81548160ff0219169083151502179055505050565b60606200238d8262002aed565b15156200239957600080fd5b60d460008381526020019081526020016000208054600181600116156101000203166002900480601f016020809104026020016040519081016040528092919081815260200182805460018160011615610100020316600290048015620024445780601f10620024185761010080835404028352916020019162002444565b820191906000526020600020905b8154815290600101906020018083116200242657829003601f168201915b50505050509050919050565b6000806200245d62001f33565b15156200246957600080fd5b60006101a454141515620024e5576040517f08c379a000000000000000000000000000000000000000000000000000000000815260040180806020018281038252601d8152602001807f5061746368546f6b656e3a2053616c652068617320737461727465642e00000081525060200191505060405180910390fd5b6101a35491506101a260009054906101000a900473ffffffffffffffffffffffffffffffffffffffff1662002519620040e5565b808273ffffffffffffffffffffffffffffffffffffffff1673ffffffffffffffffffffffffffffffffffffffff1681526020018060200182810382526000815260200160200192505050604051809103906000f08015801562002580573d6000803e3d6000fd5b509050806101a6600084815260200190815260200160002060006101000a81548173ffffffffffffffffffffffffffffffffffffffff021916908373ffffffffffffffffffffffffffffffffffffffff160217905550826101a760008481526020019081526020016000209080519060200190620026009291906200405e565b5060016101a354016101a3819055507fe44d8d5175e31f25ec14fe9bf7de1d0161a2297651284f28793414c33bed269f8282604051808381526020018273ffffffffffffffffffffffffffffffffffffffff1673ffffffffffffffffffffffffffffffffffffffff1681526020019250505060405180910390a1505050565b6101a260009054906101000a900473ffffffffffffffffffffffffffffffffffffffff1681565b6000606960008473ffffffffffffffffffffffffffffffffffffffff1673ffffffffffffffffffffffffffffffffffffffff16815260200190815260200160002060008373ffffffffffffffffffffffffffffffffffffffff1673ffffffffffffffffffffffffffffffffffffffff16815260200190815260200160002060009054906101000a900460ff16905092915050565b6200274462001f33565b15156200275057600080fd5b6200275b81620037a2565b50565b60003373ffffffffffffffffffffffffffffffffffffffff166200278283620018e7565b73ffffffffffffffffffffffffffffffffffffffff1614151562002834576040517f08c379a00000000000000000000000000000000000000000000000000000000081526004018080602001828103825260278152602001807f5061746368546f6b656e3a20506c656467657220646f6573206e6f74206f776e81526020017f20746f6b656e2e0000000000000000000000000000000000000000000000000081525060400191505060405180910390fd5b600073ffffffffffffffffffffffffffffffffffffffff166101a6600085815260200190815260200160002060009054906101000a900473ffffffffffffffffffffffffffffffffffffffff1673ffffffffffffffffffffffffffffffffffffffff161415151562002934576040517f08c379a00000000000000000000000000000000000000000000000000000000081526004018080602001828103825260228152602001807f5061746368546f6b656e3a2044657369676e20646f6573206e6f74206578697381526020017f742e00000000000000000000000000000000000000000000000000000000000081525060400191505060405180910390fd5b600015156101a5600084815260200190815260200160002060009054906101000a900460ff161515141515620029f8576040517f08c379a00000000000000000000000000000000000000000000000000000000081526004018080602001828103825260258152602001807f5061746368546f6b656e3a20546f6b656e20697320616c726561647920706c6581526020017f646765642e00000000000000000000000000000000000000000000000000000081525060400191505060405180910390fd5b6101a6600084815260200190815260200160002060009054906101000a900473ffffffffffffffffffffffffffffffffffffffff1690508073ffffffffffffffffffffffffffffffffffffffff166395c0b4926101a054336040518363ffffffff167c0100000000000000000000000000000000000000000000000000000000028152600401808273ffffffffffffffffffffffffffffffffffffffff1673ffffffffffffffffffffffffffffffffffffffff1681526020019150506000604051808303818588803b15801562002ace57600080fd5b505af115801562002ae3573d6000803e3d6000fd5b5050505050505050565b6000806066600084815260200190815260200160002060009054906101000a900473ffffffffffffffffffffffffffffffffffffffff169050600073ffffffffffffffffffffffffffffffffffffffff168173ffffffffffffffffffffffffffffffffffffffff161415915050919050565b60008062002b6d83620018e7565b90508073ffffffffffffffffffffffffffffffffffffffff168473ffffffffffffffffffffffffffffffffffffffff16148062002bdf57508373ffffffffffffffffffffffffffffffffffffffff1662002bc78462001123565b73ffffffffffffffffffffffffffffffffffffffff16145b8062002bf3575062002bf28185620026a6565b5b91505092915050565b8173ffffffffffffffffffffffffffffffffffffffff1662002c1e82620018e7565b73ffffffffffffffffffffffffffffffffffffffff1614151562002c4157600080fd5b600073ffffffffffffffffffffffffffffffffffffffff166067600083815260200190815260200160002060009054906101000a900473ffffffffffffffffffffffffffffffffffffffff1673ffffffffffffffffffffffffffffffffffffffff1614151562002cff5760006067600083815260200190815260200160002060006101000a81548173ffffffffffffffffffffffffffffffffffffffff021916908373ffffffffffffffffffffffffffffffffffffffff1602179055505b5050565b600080600062002d148585620038a1565b609d600085815260200190815260200160002054925062002d826001609c60008873ffffffffffffffffffffffffffffffffffffffff1673ffffffffffffffffffffffffffffffffffffffff16815260200190815260200160002080549050620039d590919063ffffffff16565b9150609c60008673ffffffffffffffffffffffffffffffffffffffff1673ffffffffffffffffffffffffffffffffffffffff1681526020019081526020016000208281548110151562002dd157fe5b9060005260206000200154905080609c60008773ffffffffffffffffffffffffffffffffffffffff1673ffffffffffffffffffffffffffffffffffffffff1681526020019081526020016000208481548110151562002e2c57fe5b9060005260206000200181905550609c60008673ffffffffffffffffffffffffffffffffffffffff1673ffffffffffffffffffffffffffffffffffffffff16815260200190815260200160002080548091906001900362002e8e9190620040f6565b506000609d60008681526020019081526020016000208190555082609d6000838152602001908152602001600020819055505050505050565b600062002ed58383620039f7565b609c60008473ffffffffffffffffffffffffffffffffffffffff1673ffffffffffffffffffffffffffffffffffffffff168152602001908152602001600020805490509050609c60008473ffffffffffffffffffffffffffffffffffffffff1673ffffffffffffffffffffffffffffffffffffffff16815260200190815260200160002082908060018154018082558091505090600182039060005260206000200160009091929091909150555080609d600084815260200190815260200160002081905550505050565b600080303b90506000811491505090565b600062002fe16380ac58cd7c01000000000000000000000000000000000000000000000000000000000262001015565b905090565b63ffffffff7c010000000000000000000000000000000000000000000000000000000002817bffffffffffffffffffffffffffffffffffffffffffffffffffffffff1916141515156200303857600080fd5b600160336000837bffffffffffffffffffffffffffffffffffffffffffffffffffffffff19167bffffffffffffffffffffffffffffffffffffffffffffffffffffffff1916815260200190815260200160002060006101000a81548160ff02191690831515021790555050565b620030b1828262003b54565b609e80549050609f600083815260200190815260200160002081905550609e8190806001815401808255809150509060018203906000526020600020016000909192909190915055505050565b620031098262002aed565b15156200311557600080fd5b8060d4600084815260200190815260200160002090805190602001906200313e9291906200405e565b505050565b60008060019054906101000a900460ff16806200316657506200316562002fa0565b5b806200317e57506000809054906101000a900460ff16155b151562003219576040517f08c379a000000000000000000000000000000000000000000000000000000000815260040180806020018281038252602e8152602001807f436f6e747261637420696e7374616e63652068617320616c726561647920626581526020017f656e20696e697469616c697a656400000000000000000000000000000000000081525060400191505060405180910390fd5b600060019054906101000a900460ff1690506001600060016101000a81548160ff02191690831515021790555060016000806101000a81548160ff0219169083151502179055506200326a62003bfd565b620032986380ac58cd7c01000000000000000000000000000000000000000000000000000000000262002fe6565b80600060016101000a81548160ff02191690831515021790555050565b60008060019054906101000a900460ff1680620032d85750620032d762002fa0565b5b80620032f057506000809054906101000a900460ff16155b15156200338b576040517f08c379a000000000000000000000000000000000000000000000000000000000815260040180806020018281038252602e8152602001807f436f6e747261637420696e7374616e63652068617320616c726561647920626581526020017f656e20696e697469616c697a656400000000000000000000000000000000000081525060400191505060405180910390fd5b600060019054906101000a900460ff1690506001600060016101000a81548160ff02191690831515021790555060016000806101000a81548160ff021916908315150217905550620033dc62002fb1565b1515620033e857600080fd5b620033f262003d65565b1515620033fe57600080fd5b620034098262003d9a565b80600060016101000a81548160ff0219169083151502179055505050565b6200343e8161010762003ef390919063ffffffff16565b8073ffffffffffffffffffffffffffffffffffffffff167f6ae172837ea30b801fbfcdd4108aa1d5bf8ff775444fd70256b44e6bf3dfc3f660405160405180910390a250565b6200349b8161010762003f8e90919063ffffffff16565b8073ffffffffffffffffffffffffffffffffffffffff167fe94479a9f7e1952cc78f2d6baab678adc1b772d936c6583def489e524cb6669260405160405180910390a250565b60008073ffffffffffffffffffffffffffffffffffffffff168273ffffffffffffffffffffffffffffffffffffffff16141515156200351f57600080fd5b8260000160008373ffffffffffffffffffffffffffffffffffffffff1673ffffffffffffffffffffffffffffffffffffffff16815260200190815260200160002060009054906101000a900460ff16905092915050565b6000806200359a8573ffffffffffffffffffffffffffffffffffffffff1662004029565b1515620035ab576001915062003799565b8473ffffffffffffffffffffffffffffffffffffffff1663150b7a02338887876040518563ffffffff167c0100000000000000000000000000000000000000000000000000000000028152600401808573ffffffffffffffffffffffffffffffffffffffff1673ffffffffffffffffffffffffffffffffffffffff1681526020018473ffffffffffffffffffffffffffffffffffffffff1673ffffffffffffffffffffffffffffffffffffffff16815260200183815260200180602001828103825283818151815260200191508051906020019080838360005b83811015620036a257808201518184015260208101905062003685565b50505050905090810190601f168015620036d05780820380516001836020036101000a031916815260200191505b5095505050505050602060405180830381600087803b158015620036f357600080fd5b505af115801562003708573d6000803e3d6000fd5b505050506040513d60208110156200371f57600080fd5b8101908080519060200190929190505050905063150b7a027c0100000000000000000000000000000000000000000000000000000000027bffffffffffffffffffffffffffffffffffffffffffffffffffffffff1916817bffffffffffffffffffffffffffffffffffffffffffffffffffffffff19161491505b50949350505050565b600073ffffffffffffffffffffffffffffffffffffffff168173ffffffffffffffffffffffffffffffffffffffff1614151515620037df57600080fd5b8073ffffffffffffffffffffffffffffffffffffffff1661016c60009054906101000a900473ffffffffffffffffffffffffffffffffffffffff1673ffffffffffffffffffffffffffffffffffffffff167f8be0079c531659141344cd1fd0a4f28419497f9722a3daafe3b4186f6b6457e060405160405180910390a38061016c60006101000a81548173ffffffffffffffffffffffffffffffffffffffff021916908373ffffffffffffffffffffffffffffffffffffffff16021790555050565b8173ffffffffffffffffffffffffffffffffffffffff16620038c382620018e7565b73ffffffffffffffffffffffffffffffffffffffff16141515620038e657600080fd5b6200393b6001606860008573ffffffffffffffffffffffffffffffffffffffff1673ffffffffffffffffffffffffffffffffffffffff16815260200190815260200160002054620039d590919063ffffffff16565b606860008473ffffffffffffffffffffffffffffffffffffffff1673ffffffffffffffffffffffffffffffffffffffff1681526020019081526020016000208190555060006066600083815260200190815260200160002060006101000a81548173ffffffffffffffffffffffffffffffffffffffff021916908373ffffffffffffffffffffffffffffffffffffffff1602179055505050565b600080838311151515620039e857600080fd5b82840390508091505092915050565b600073ffffffffffffffffffffffffffffffffffffffff166066600083815260200190815260200160002060009054906101000a900473ffffffffffffffffffffffffffffffffffffffff1673ffffffffffffffffffffffffffffffffffffffff1614151562003a6657600080fd5b816066600083815260200190815260200160002060006101000a81548173ffffffffffffffffffffffffffffffffffffffff021916908373ffffffffffffffffffffffffffffffffffffffff16021790555062003b0d6001606860008573ffffffffffffffffffffffffffffffffffffffff1673ffffffffffffffffffffffffffffffffffffffff168152602001908152602001600020546200403c90919063ffffffff16565b606860008473ffffffffffffffffffffffffffffffffffffffff1673ffffffffffffffffffffffffffffffffffffffff168152602001908152602001600020819055505050565b600073ffffffffffffffffffffffffffffffffffffffff168273ffffffffffffffffffffffffffffffffffffffff161415151562003b9157600080fd5b62003b9d828262002ec7565b808273ffffffffffffffffffffffffffffffffffffffff16600073ffffffffffffffffffffffffffffffffffffffff167fddf252ad1be2c89b69c2b068fc378daa952ba7f163c4a11628f55a4df523b3ef60405160405180910390a45050565b60008060019054906101000a900460ff168062003c20575062003c1f62002fa0565b5b8062003c3857506000809054906101000a900460ff16155b151562003cd3576040517f08c379a000000000000000000000000000000000000000000000000000000000815260040180806020018281038252602e8152602001807f436f6e747261637420696e7374616e63652068617320616c726561647920626581526020017f656e20696e697469616c697a656400000000000000000000000000000000000081525060400191505060405180910390fd5b600060019054906101000a900460ff1690506001600060016101000a81548160ff02191690831515021790555060016000806101000a81548160ff02191690831515021790555062003d486301ffc9a77c01000000000000000000000000000000000000000000000000000000000262002fe6565b80600060016101000a81548160ff02191690831515021790555050565b600062003d95635b5e139f7c01000000000000000000000000000000000000000000000000000000000262001015565b905090565b60008060019054906101000a900460ff168062003dbd575062003dbc62002fa0565b5b8062003dd557506000809054906101000a900460ff16155b151562003e70576040517f08c379a000000000000000000000000000000000000000000000000000000000815260040180806020018281038252602e8152602001807f436f6e747261637420696e7374616e63652068617320616c726561647920626581526020017f656e20696e697469616c697a656400000000000000000000000000000000000081525060400191505060405180910390fd5b600060019054906101000a900460ff1690506001600060016101000a81548160ff02191690831515021790555060016000806101000a81548160ff02191690831515021790555062003ec282620021af565b151562003ed55762003ed48262003427565b5b80600060016101000a81548160ff0219169083151502179055505050565b600073ffffffffffffffffffffffffffffffffffffffff168173ffffffffffffffffffffffffffffffffffffffff161415151562003f3057600080fd5b60018260000160008373ffffffffffffffffffffffffffffffffffffffff1673ffffffffffffffffffffffffffffffffffffffff16815260200190815260200160002060006101000a81548160ff0219169083151502179055505050565b600073ffffffffffffffffffffffffffffffffffffffff168173ffffffffffffffffffffffffffffffffffffffff161415151562003fcb57600080fd5b60008260000160008373ffffffffffffffffffffffffffffffffffffffff1673ffffffffffffffffffffffffffffffffffffffff16815260200190815260200160002060006101000a81548160ff0219169083151502179055505050565b600080823b905060008111915050919050565b60008082840190508381101515156200405457600080fd5b8091505092915050565b828054600181600116156101000203166002900490600052602060002090601f016020900481019282601f10620040a157805160ff1916838001178555620040d2565b82800160010185558215620040d2579182015b82811115620040d1578251825591602001919060010190620040b4565b5b509050620040e1919062004125565b5090565b604051610338806200414e83390190565b81548183558181111562004120578183600052602060002091820191016200411f919062004125565b5b505050565b6200414a91905b80821115620041465760008160009055506001016200412c565b5090565b9056006080604052604051610338380380610338833981018060405281019080805190602001909291908051820192919050505060405180807f6f72672e7a657070656c696e6f732e70726f78792e696d706c656d656e74617481526020017f696f6e000000000000000000000000000000000000000000000000000000000081525060230190506040518091039020600019167f7050c9e0f4ca769c69bd3a8ef740bc37934f8e2c036e5a723fd8ee048ed3f8c3600102600019161415156100c157fe5b6100d98261017b640100000000026401000000009004565b600081511115610174578173ffffffffffffffffffffffffffffffffffffffff168160405180828051906020019080838360005b8381101561012857808201518184015260208101905061010d565b50505050905090810190601f1680156101555780820380516001836020036101000a031916815260200191505b50915050600060405180830381855af4915050151561017357600080fd5b5b5050610273565b60006101998261026064010000000002610078176401000000009004565b1515610233576040517f08c379a000000000000000000000000000000000000000000000000000000000815260040180806020018281038252603b8152602001807f43616e6e6f742073657420612070726f787920696d706c656d656e746174696f81526020017f6e20746f2061206e6f6e2d636f6e74726163742061646472657373000000000081525060400191505060405180910390fd5b7f7050c9e0f4ca769c69bd3a8ef740bc37934f8e2c036e5a723fd8ee048ed3f8c360010290508181555050565b600080823b905060008111915050919050565b60b7806102816000396000f3006080604052600a600c565b005b60126020565b601e601a6022565b6053565b565b565b6000807f7050c9e0f4ca769c69bd3a8ef740bc37934f8e2c036e5a723fd8ee048ed3f8c36001029050805491505090565b3660008037600080366000845af43d6000803e80600081146073573d6000f35b3d6000fd5b600080823b9050600081119150509190505600a165627a7a72305820d705660836776739e2f551bb711a4941edabc746e2936bc7cd94cf0f5fdfd2760029a165627a7a723058208bc45f195b009cc411578112068049c3c2f92cfa98a3b723f9d4dc2a301477b80029",
  "source": "pragma solidity ^0.4.24;\n\nimport \"openzeppelin-eth/contracts/token/ERC721/ERC721.sol\";\nimport \"openzeppelin-eth/contracts/token/ERC721/ERC721Enumerable.sol\";\nimport \"openzeppelin-eth/contracts/token/ERC721/ERC721Metadata.sol\";\nimport \"openzeppelin-eth/contracts/token/ERC721/ERC721MetadataMintable.sol\";\nimport \"openzeppelin-eth/contracts/ownership/Ownable.sol\";\nimport \"openzeppelin-eth/contracts/math/SafeMath.sol\";\nimport \"zos-lib/contracts/Initializable.sol\";\nimport \"zos-lib/contracts/upgradeability/UpgradeabilityProxy.sol\";\n\nimport \"./PatchStaking.sol\";\n\ncontract PatchToken is Initializable, ERC721, ERC721Enumerable, ERC721Metadata, ERC721MetadataMintable, Ownable {\n  using SafeMath for uint256;\n\n  event DesignAdded(uint256 patch, address staking);\n  event Purchase(address indexed purchaser);\n  string public metadataUri;\n  uint256 public price = 1 * 10 ** 17;\n  uint256 public contributionPercent = 10;\n  address public patchStakingImplementation;\n  uint256 public numPatches = 0;\n  uint256 public endtime;\n\n  mapping(uint256 => bool) isPledged;\n  mapping(uint256 => PatchStaking) patchStaking;\n  mapping(uint256 => string) patchMetadata;\n\n  modifier saleNotActive() {\n    require(endtime == 0, \"PatchToken: Sale has started.\");\n    _;\n  }\n\n  modifier saleActive() {\n    require(endtime != 0, \"PatchToken: Sale not active.\");\n    require(now < endtime, \"PatchToken: Sale not active.\");\n    _;\n  }\n\n  function initialize(string _name, string _symbol, string _metadataUri, address _patchStakingImplementation) initializer public {\n    ERC721.initialize();\n    ERC721Enumerable.initialize();\n    ERC721Metadata.initialize(_name, _symbol);\n    ERC721MetadataMintable.initialize(address(this));\n    Ownable.initialize(msg.sender);\n\n    metadataUri = _metadataUri;\n\n    patchStakingImplementation = _patchStakingImplementation;\n  }\n\n  function addDesign(string _metadataUri) onlyOwner saleNotActive public {\n    uint patch = numPatches;\n    PatchStaking patchStake = PatchStaking(new UpgradeabilityProxy(patchStakingImplementation, \"\"));\n    patchStaking[patch] = patchStake;\n    patchMetadata[patch] = _metadataUri;\n\n    numPatches = numPatches + 1;\n    emit DesignAdded(patch, patchStake);\n  }\n\n  function startSale(uint duration) onlyOwner saleNotActive public {\n    endtime = now + duration;\n  }\n\n  function purchase() saleActive public payable {\n    require(msg.value >= price, \"Not enough ETH sent\");\n\n    uint256 tokenId = totalSupply();\n    _mint(msg.sender, tokenId);\n    _setTokenURI(tokenId, metadataUri);\n  }\n\n  function pledge(uint256 _patch, uint256 _tokenId) public {\n    require(ownerOf(_tokenId) == msg.sender, \"PatchToken: Pledger does not own token.\");\n    require(patchStaking[_patch] != address(0), \"PatchToken: Design does not exist.\");\n    require(isPledged[_tokenId] == false, \"PatchToken: Token is already pledged.\");\n\n    PatchStaking patchStake = patchStaking[_patch];\n    patchStake.bondForUser.value(price)(msg.sender);\n  }\n}\n",
  "sourcePath": "/Users/tarrence/code/crypto/pop/contracts/PatchToken.sol",
  "compiler": {
    "name": "solc",
    "version": "0.4.25+commit.59dbf8f1.Emscripten.clang"
  },
  "schemaVersion": "3.0.0-beta.1",
  "updatedAt": "2018-11-02T22:57:37.043Z"
}